:020000040800F2
:10000000000002205909000855090008653D000854
:1000100055090008550900085509000800000000AE
:10002000000000000000000000000000550900086A
:10003000550900080000000055090008E93C0008C7
:100040005509000855090008550900085509000818
:100050005509000855090008550900085509000808
:10006000550900085509000855090008F13800082D
:10007000FD38000855260008093900081539000820
:1000800095DE0008212E00085509000855090008D2
:1000900055090008550900085509000855090008C8
:1000A00055090008550900085509000855090008B8
:1000B000ADD20008B9D20008C5D20008552E0008FC
:1000C00055090008612E0008550900081DCB0008DD
:1000D00029CB0008C9DC0008F5DC000829DD000890
:1000E00055090008550900080000000055090008DE
:1000F0005509000855090008550900085509000868
:100100005509000855090008D1D2000835CB000870
:100110005DDD000891DD000855090008550900085B
:10012000550900085509000859CB00088DCB000877
:10013000C9DE0008550900085509000855090008DE
:1001400000000000000000000000000000000000AF
:10015000550900085509000855090008C5DD0008C3
:100160006D2E000855090008F93C00081D3D0008E7
:1001700055090008413D00085509000855090008C7
:100180005509000855090008F9DD00082DDE0008B2
:1001900041CB00084DCB000855090008550900085F
:1001A00055090008550900085509000855090008B7
:1001B00011360008550900085509000855090008BE
:1001C0005509000855090008550900085509000897
:1001D0005509000855090008550900085509000887
:1001E0005509000855090008550900085509000877
:1001F0005509000855090008550900085509000867
:100200005509000855090008550900085509000856
:100210005509000855090008550900085509000846
:10022000550900085509000855090008000000009C
:10023000550900085509000800000000550900088C
:100240005509000855090008550900085509000816
:100250005509000855090008550900085509000806
:1002600055090008550900085509000855090008F6
:10027000550900085509000861DE0008000000006B
:10028000550900085509000855090008000000003C
:08029000000000005509000800
:1002980010B5054C237833B9044B13B10448AFF3B8
:1002A80000800123237010BDE0030024000000003B
:1002B800A831010808B5034B1BB103490348AFF344
:1002C800008008BD00000000E4030024A8310108F4
:1002D80081F0004102E000BF83F0004330B54FEAEF
:1002E80041044FEA430594EA050F08BF90EA020F5C
:1002F8001FBF54EA000C55EA020C7FEA645C7FEAEF
:10030800655C00F0E2804FEA5454D4EB5555B8BF11
:100318006D420CDD2C4480EA020281EA030382EA82
:10032800000083EA010180EA020281EA0303362D14
:1003380088BF30BD11F0004F4FEA01314FF4801CE7
:100348004CEA113102D0404261EB410113F0004FF9
:100358004FEA03334CEA133302D0524263EB4303B0
:1003680094EA050F00F0A780A4F10104D5F1200E4E
:100378000DDB02FA0EFC22FA05F2801841F10001A9
:1003880003FA0EF2801843FA05F359410EE0A5F17D
:1003980020050EF1200E012A03FA0EFC28BF4CF0AE
:1003A800020C43FA05F3C01851EBE37101F0004564
:1003B80007D54FF0000EDCF1000C7EEB00006EEB71
:1003C8000101B1F5801F1BD3B1F5001F0CD34908FB
:1003D8005FEA30004FEA3C0C04F101044FEA445252
:1003E80012F5800F80F09A80BCF1004F08BF5FEAD9
:1003F800500C50F1000041EB045141EA050130BDB9
:100408005FEA4C0C404141EB0101013C28BFB1F5CA
:10041800801FE9D291F0000F04BF01460020B1FA15
:1004280081F308BF2033A3F10B03B3F120020CDAE8
:100438000C3208DD02F1140CC2F10C0201FA0CF0C6
:1004480021FA02F10CE002F11402D8BFC2F1200C2B
:1004580001FA02F120FA0CFCDCBF41EA0C019040E1
:10046800E41AA2BF01EB0451294330BD6FEA04042A
:100478001F3C1CDA0C340EDC04F11404C4F1200215
:1004880020FA04F001FA02F340EA030021FA04F327
:1004980045EA030130BDC4F10C04C4F1200220FA7E
:1004A80002F001FA04F340EA0300294630BD21FABC
:1004B80004F0294630BD94F0000F83F4801306BF82
:1004C80081F480110134013D4EE77FEA645C18BF76
:1004D8007FEA655C29D094EA050F08BF90EA020F0D
:1004E80005D054EA000C04BF1946104630BD91EA05
:1004F800030F1EBF0021002030BD5FEA545C05D108
:100508004000494128BF41F0004130BD14F5800446
:100518003CBF01F5801130BD01F0004545F0FE41BA
:1005280041F470014FF0000030BD7FEA645C1ABFEF
:10053800194610467FEA655C1CBF0B46024650EA26
:10054800013406BF52EA033591EA030F41F4002152
:1005580030BD00BF90F0000F04BF0021704730B5D8
:100568004FF4806404F132044FF000054FF00001AD
:1005780050E700BF90F0000F04BF0021704730B56E
:100588004FF4806404F1320410F0004548BF404243
:100598004FF000013EE700BF42004FEAE2014FEA98
:1005A80031014FEA02701FBF12F07F4393F07F4F73
:1005B80081F06051704732F07F4208BF704793F076
:1005C8007F4F04BF41F40021704730B54FF4607489
:1005D80001F0004521F000411CE700BF50EA01028C
:1005E80008BF704730B54FF000050AE050EA010235
:1005F80008BF704730B511F0004502D5404261EBA5
:1006080041014FF4806404F132045FEA915C3FF4E5
:10061800D8AE4FF003025FEADC0C18BF03325FEA82
:10062800DC0C18BF033202EBDC02C2F1200300FA33
:1006380003FC20FA02F001FA03FE40EA0E0021FA58
:1006480002F11444BDE600BF53B94AB9002908BFF6
:1006580000281CBF4FF0FF314FF0FF3000F074B995
:10066800ADF1080C6DE904CE00F006F8DDF804E001
:10067800DDE9022304B070472DE9F047089D0446E0
:100688008E46002B4DD18A42944669D9B2FA82F23D
:1006980052B101FA02F3C2F1200120FA01F10CFA79
:1006A80002FC41EA030E94404FEA1C48210CBEFBB1
:1006B800F8F61FFA8CF708FB16E341EA034306FB3A
:1006C80007F199420AD91CEB030306F1FF3080F0C9
:1006D8001F81994240F21C81023E63445B1AA4B216
:1006E800B3FBF8F008FB103344EA034400FB07F7B8
:1006F800A7420AD91CEB040400F1FF3380F00A81F9
:10070800A74240F207816444023840EA0640E41BED
:1007180000261DB1D4400023C5E900433146BDE899
:10072800F0878B4209D9002D00F0EF800026C5E93B
:10073800000130463146BDE8F087B3FA83F6002E53
:100748004AD18B4202D3824200F2F980841A61EBCB
:10075800030301209E46002DE0D0C5E9004EDDE7E9
:1007680002B9FFDEB2FA82F2002A40F09280A1EBD1
:100778000C014FEA1C471FFA8CFE0126200CB1FB26
:10078800F7F307FB131140EA01410EFB03F088421F
:1007980008D91CEB010103F1FF3802D2884200F2AC
:1007A800CB804346091AA4B2B1FBF7F007FB10113E
:1007B80044EA01440EFB00FEA64508D91CEB0404DC
:1007C80000F1FF3102D2A64500F2BB800846A4EB37
:1007D8000E0440EA03409CE7C6F12007B34022FA22
:1007E80007FC4CEA030C20FA07F401FA06F31C4351
:1007F800F9404FEA1C4900FA06F3B1FBF9F8200C5E
:100808001FFA8CFE09FB181140EA014108FB0EF0A3
:10081800884202FA06F20BD91CEB010108F1FF3AF3
:1008280080F08880884240F28580A8F102086144FF
:10083800091AA4B2B1FBF9F009FB101144EA01410D
:1008480000FB0EFE8E4508D91CEB010100F1FF34B8
:100858006CD28E456AD90238614440EA0840A0FB50
:100868000294A1EB0E01A142C846A64656D353D026
:100878005DB1B3EB080261EB0E0101FA07F722FA4A
:1008880006F3F1401F43C5E9007100263146BDE873
:10089800F087C2F12003D8400CFA02FC21FA03F3D6
:1008A800914001434FEA1C471FFA8CFEB3FBF7F057
:1008B80007FB10360B0C43EA064300FB0EF69E427C
:1008C80004FA02F408D91CEB030300F1FF382FD215
:1008D8009E422DD9023863449B1B89B2B3FBF7F6BD
:1008E80007FB163341EA034106FB0EF38B4208D996
:1008F8001CEB010106F1FF3816D28B4214D9023ED7
:100908006144C91A46EA004638E72E46284605E7F4
:100918000646E3E61846F8E64B45A9D2B9EB0208C5
:1009280064EB0C0E0138A3E74646EAE7204694E755
:100938004046D1E7D0467BE7023B614432E7304688
:1009480009E76444023842E7704700BFFEE700BF8A
:100958000B480C4A904203D0121A0B4912F012F8B5
:100968000A480B4A904203D0121A002112F018F8D4
:1009780003F04CFC11F0E2FF00F088F8FEE700BF3E
:1009880000000024E0030024D8310108E00300241B
:100998000C320024704700BF704700BF704700BF8B
:1009A800002A68D02DE9F8430E4690460024324FBD
:1009B8002DED028B12E00025736829462F484FEA77
:1009C800840903EB8405013410F058FA3368A04514
:1009D80085ED000A4B4483ED000A48D0264801F013
:1009E80073FB3D79002DE7D0BB7A7F2BE3D1B3EEC3
:1009F8000E8A0021224801F0CDFD0321A0EE088ACD
:100A08001F4801F0C7FD9FED1F7ADFED1F7A012116
:100A18001B48A0EE078AB4EE678AF1EE10FA37FE9B
:100A2800888A01F0B7FD04211548F0EE408A01F0EC
:100A3800B1FDB0EE407A1148F7EE007AB0EE480A00
:100A480078EE878AF4EE678AF1EE10FA77FEA88AC4
:100A580010F0CEFBB0EE680A084810F0E9FB02215E
:100A6800074801F097FD054810F0D4FBA4E7BDEC5A
:100A7800028BBDE8F8837047D4040024FC030024EB
:100A8800AC040024000048420000A04200B53A48E7
:100A98002DED028B9FB000F0A5F80021364800F03C
:100AA80099F90421344800F0BDF8334800F0B6F84D
:100AB8003248B0EE408A10F099F99FED310A2F487C
:100AC80010F0C4FB9FED2F0A2C4810F0C9FB0F2033
:100AD80000F08AF803469FED2C0AADF8043088EE42
:100AE800000A0199294801F0D5FA132000F07CF892
:100AF8000346022207A8ADF80830029901F012FB5C
:100B0800142000F071F8034602220DF12E00ADF812
:100B18000C30039901F006FB152000F065F8034638
:100B2800022210A8ADF81030049901F0FBFA102049
:100B380000F05AF8034602220DF15200ADF81430C5
:100B4800059901F0EFFA112000F04EF80346022251
:100B580019A8ADF81830069901F0E4FA07A904239A
:100B680005220B4801F0F2FA094801F0FDFC094999
:100B7800014800F04FF8FEE794040024FC03002429
:100B8800CDCCCC3DCDCC4C3F00004042D404002419
:100B9800AC040024A909000808B50B4800230B4A37
:100BA800036043610362C363094910F095FC074A77
:100BB8000849094810F090FC044A08490848BDE86B
:100BC800084010F089BC00BF9404002400000024F1
:100BD800A1090008A5090008FC0300249D090008D4
:100BE800D4040024704700BF202882B009D8084BDD
:100BF80003EB400213F81030507843EA002002B0AB
:100C0800704701230C2043EA002002B0704700BF60
:100C1800EC290108143001F009BA00BF143001F0C2
:100C280001BA00BF38B500F1140504462DED028B5A
:100C3800284601F0E9F9284601F0F4F92846B0EE13
:100C4800408A01F0DDF9D0ED007AF8EE677A88EE97
:100C5800277ABDEC028B84ED0E7A38BD10B540F2D0
:100C680003338EB000244FF60B7240F20341ADF807
:100C7800083009A80123ADF81020ADF82420224639
:100C8800ADF80C100094029907940C94CDE9054432
:100C9800CDE90A4401F086FD04A801232246039900
:100CA800009401F07FFD09A801F062FE10B901204F
:100CB8000EB010BD04A801F05BFEA0420CBF0220DC
:100CC80020460EB010BD00BF2DE9F04103239AB0B5
:100CD800012700240646CDE914373B4BCDE91043E4
:100CE80040F20453CDE91647ADF84830FFF7B6FF98
:100CF800B842054625D0022845D040F60132334B8C
:100D08000DF12C081894ADF82C200B981997CDF8F4
:100D18004A3000F0E3F810A906F13C0002F070FE3A
:100D2800302003224FF07E5341460D930E93CDE9B8
:100D38000B02F26B06F1140001F02AF91AB0BDE8B3
:100D4800F0811023214A06A906908DF828300DF16C
:100D58002C081F4BCDF84A2007930294CDE91804BC
:100D6800CDE9080402A802F083F80823029A03A92F
:100D78004046ADF80C508DF80E40049505930B9441
:100D880000F0ECF8C7E700200121104B0DF12C080A
:100D98003A460094CDF84A304FF60B730C94ADF8F0
:100DA8002C302346CDE9180140F601314046ADF814
:100DB80018100699CDE90D4401F0F4FC214640468F
:100DC80001F0E2FDA7E700BF0402040404060403DF
:100DD8000704010B2DE9F04704462DED028B82B084
:100DE80000294DD0012140F2011200230091ADF8F5
:100DF80004208DF80630364A0127364B04F10409E1
:100E0800354904F12908626040F20272A36040F695
:100E18000663E16004F1250AA4F82520A4F8293026
:100E2800278284F8277084F82B7003F0A5F905460B
:100E380003F008F86946064650BB4DB304F130008C
:100E48008DF8067003F020F9072D3CD104F1140544
:100E58002046FFF739FF284601F0E4F82846B0EEAF
:100E6800408A01F0CDF8D0ED007AF8EE677A88EE86
:100E7800277A84ED0E7A02B0BDEC028BBDE8F087CC
:100E880040F2011300918DF80610ADF80430B2E776
:100E980004F1300003F0F8F8072D11D04946204638
:100EA80002F02EFA0EB9002DD0D1504601F076FD91
:100EB800404601F073FD04F1120000F079F9C5E72E
:100EC800002EF2D1C2E74946204602F019FABDE7E2
:100ED8000508050905070506050A060610B584B0C4
:100EE80003460124ADF8040003A8ADF80C30ADF8B2
:100EF8000E4001F053FD214603A801F039FE2046BB
:100F080002F09EFF002103A801F032FE204602F005
:100F180097FF214603A801F02BFE04B010BD00BFC7
:100F280010B5C2F3002384B00C46017C8DF80D2067
:100F380043EA4402FA2402238DF80C2003AA009401
:100F480002F02CF818B10124204604B010BD044664
:100F58000A2002F075FF204604B010BD034670B5A4
:100F680043F8042B044684B007C983E80700A37933
:100F780083B91A210B461E22FA2523742046ADF8A0
:100F88000C20022303AA009502F008F828B10120DA
:100F980004B070BD1B210B46EDE70A2002F050FF9C
:100FA8004FF4B85200950223ADF80C20204603AA4E
:100FB800217C01F0F3FF0028E9D10A2002F040FF6C
:100FC80041F2027200950223ADF80C20204603AAD4
:100FD800217C01F0E3FF0028D9D10A2002F030FF7C
:100FE800042200950223ADF80C20204603AA217C98
:100FF80001F0D4FF0028CAD10A2002F021FF0622FE
:1010080000950223ADF80C20204603AA217C01F0AC
:10101800C5FF0028BBD10A2002F012FF41F20822C6
:1010280000950223ADF80C20204603AA217C01F08C
:10103800B5FF0028ABD10A20064602F001FF009553
:10104800022303AA217C2046ADF80C6001F0A6FF1C
:1010580000289CD1304602F0F3FE009522790C233B
:101068002046002A8DF80C3003AA4FF0020314BF63
:10107800622142218DF80D10217C01F08FFF00289C
:1010880085D1304602F0DCFE2279D4E902310B43E7
:10109800DBB20AB943F0400362790AB143F0200396
:1010A8000E22FA258DF80D302046009502238DF882
:1010B8000C2003AA217C01F071FF00287FF467AFA0
:1010C8000A2002F0BDFE102200950223ADF80C2084
:1010D800204603AA217C01F061FF00287FF457AF66
:1010E8000A2002F0ADFE122100950223ADF80C1083
:1010F80003AA217C204601F051FF00287FF447AF66
:101108000A2002F09DFE012209212046FFF708FF70
:10111800003818BF01203BE7F0B5102387B0234CF7
:10112800012200250126002702A920460195CDE9C4
:1011380002234FF48052CDE9046709F0D5FD6420FD
:1011480003F0C0FA02A94FF480522046CDE90467A3
:1011580002261027CDE9026709F0C6FD03221023F5
:1011680002A92046CDE9022300230422CDE9042365
:101178004FF4805209F0B8FD40F23223042202A94C
:10118800019310232046CDE90223019A01230592F9
:101198004FF48052049309F0A7FD40F6060120465B
:1011A80009F0C2FD284607B0F0BD00BFEC040024DA
:1011B8001C4B00221C494FF0400C30B5054689B045
:1011C8000220596007219A601A620124DA620A2211
:1011D8004FF4006EDC6006922022CDE90001042065
:1011E8000821CDE9020103201021CDE904010820DE
:1011F8006946C3E904024FF4C072181DC3E906C268
:101208004FF48052C3E909E209F044FD38B9284691
:10121800FFF782FF003818BF012009B030BD204613
:1012280009B030BDE804002440410052614A002161
:10123800D0B513688EB00A91002B40F0B9805E4B90
:1012480001214FF683700C2411600221D3F8D420B9
:101258000026032742F48052C3F8D420D3F8D420C0
:1012680002F480520092009AD3F8E02042F0100273
:10127800C3F8E020D3F8E02002F010020192019AAE
:10128800D3F8E02042F04002C3F8E020D3F8E02091
:1012980002F040020292029AD3F8E02042F00802DB
:1012A800C3F8E020D3F8E02002F008020392039A82
:1012B800D3F8E02042F48072C3F8E020D3F8E020AD
:1012C80002F480720492049AD3F8E02042F080027B
:1012D800C3F8E020D3F8E02002F080020592059AD6
:1012E800D3F8E02042F02002C3F8E020D3F8E02051
:1012F80002F020020692069AD3F8E02042F0040297
:10130800C3F8E020D3F8E0300C9403F0040307930B
:101318000323079A0B93CDE9080108A9274805F08C
:1013280057F848F23712022308A925480C94CDE94A
:101338000823CDE90A6705F04BF84CF20372022343
:1013480008A920480C94CDE90823CDE90A6705F0DF
:101358003FF840F2FF62022308A91B480C94CDE92C
:101368000823CDE90A6705F033F84FF60C7202231B
:1013780008A916480C94CDE90823CDE90A6705F0B9
:1013880027F84FF63F02022308A911480C94CDE92B
:101398000823CDE90A6705F01BF82022022308A9D3
:1013A8000A480C94CDE90A67CDE9082305F010F83E
:1013B8000EB0D0BDE40400240044025800100258C6
:1013C80000180258000C025800200258001C02584D
:1013D800001402582DE9F04FDFF8108406460D4638
:1013E800144608F118002DED028B89B000AF02F009
:1013F800FFFBD8F8183073B3D8F81C30D8F804902D
:10140800002B43690BBF4FF0080A4FF0100A4FF04A
:10141800020B4FF0040BB9F1000F2AD0A200EA46E4
:10142800012B02F1070222F00702ADEB020D68461C
:10143800ADEB020D694600F03F81022B00F0D6802B
:10144800002B6FD02246C847D5462437BD46BDEC91
:10145800028BBDE8F08FD8F81C30002BF5D0D8F8F7
:1014680004904FF0080A4FF0020B4369B9F1000FDE
:10147800D4D1FB61D8F80030BB61002BE5D0D5484A
:1014880002F028FC6B46BBF1020F786108EE103AB7
:10149800FB6900F083816A465146A2EBC402954677
:1014A8006200EA46B2FBFBF2AAEBC40085460AEBEF
:1014B8008200EE46F861ADEB010DF8690EEB820C87
:1014C800C7F810C0EC46ADEB010D00EB8201CCF87B
:1014D8000400CCF8081001EB82013869E946CCF821
:1014E8000C1000EB8201CCF800A001EB8202C9E9E4
:1014F80000E0C9E90212012B00F06483022B00F01E
:101508006C82002B00F08081620849466046BB6906
:10151800984718EE103A24379D46BD46BDEC028B1D
:10152800BDE8F08F002C8DD01A46D8ED0C6A9FEDDF
:10153800B27A8446331D36F922E00CF1080C07EE26
:1015480090EA33F922E00232F8EEE77A944267EE45
:10155800877A67EEA67A4CED027A07EE90EAF8EE03
:10156800E77A67EE877A67EEA67A4CED017AE2D8D9
:10157800F9612246C847984ED8ED0D6A0020F969EE
:101588002B1D9FED9E7A9FED9E6ADFED9E5A22E00D
:10159800F4EEC67AF1EE10FAC0F2C88447F6FE728D
:1015A800D1ED017A45F8202066EEA77AF4EEC77AE5
:1015B800F1EE10FA40F2F080F4EEC67AF1EE10FA8D
:1015C800C0F2D58447F6FE7243F820200230083175
:1015D80084427FF639AFD1ED007A66EEA77AF4EE51
:1015E800C77AF1EE10FAD3D83246D9E7002C3FF487
:1015F80029AFD8ED0C6A84469FED787A0022331D16
:101608008E4656F822100CF1080C07EE901A53F883
:1016180022100232F8EEE77A944267EE877A67EE94
:10162800A67A4CED027A07EE901AF8EEE77A67EEA2
:10163800877A67EEA67A4CED017AE2D8714622469F
:10164800C7F81CE0C847664ED8ED0D6A0020F96956
:101658002B1D9FED6A7A9FED6A6ADFF894C120E03E
:10166800F4EEC67AF1EE10FAC0F279843246D1ED82
:10167800017A45F8202066EEA77AF4EEC77AF1EEF3
:1016880010FA40F28780F4EEC67AF1EE10FAC0F252
:101698005E84324643F820200230083184427FF6C7
:1016A800D3AED1ED007A66EEA77AF4EEC77AF1EE02
:1016B80010FAD5D86246DAE7002C3FF4C3AED8ED6D
:1016C8000C6A86469FED477A4FF0000C331D56F89A
:1016D8002C200EF1080E82F40002A2F5000207EE9B
:1016E800902A53F82C200CF1020CF8EEE77A82F4D9
:1016F80000026445A2F5000267EE877A67EEA67AD3
:101708004EED027A07EE902AF8EEE77A67EE877ACE
:1017180067EEA67A4EED017AD9D8F9612246C84714
:10172800314ED8ED0D6A0020F9692B1D9FED337AF3
:101738009FED336ADFF8BCC01FE0F4EEC67AF1EE25
:1017480010FAC0F2FC833246D1ED017A45F8202028
:1017580066EEA77AF4EEC77AF1EE10FA18D9F4EE2D
:10176800C67AF1EE10FAC0F2DA83324643F8202046
:101778000230083184427FF667AED1ED007A66EE1A
:10178800A77AF4EEC77AF1EE10FAD6D86246DBE70C
:101798006246EBE762467DE7324615E7A100D6468A
:1017A8006208073121F00701ADEB010DEA46ADEB08
:1017B800010D6946ADEB0E0D0AEB8200EC46ADEB70
:1017C8000E0D01EB8202F861E946CCE900A0C9E9F7
:1017D800001290E63C0500240280FFFF0000003064
:1017E8000082FF7F0000003482FF7F002005002474
:1017F800007E00807E0080FF0000003804FF7FBF6D
:1018080004FF7F3F00FEFF46002C00F0C982BBF1B9
:10181800020FD8F8242000F0FA827969C7F80490FA
:1018280002EB810E5FED0C5A8A00DCF808100EF10D
:1018380004007A611A46DCF80C303B61331DD7F896
:1018480010903D61FD69C7E902CB8C46834636F9A5
:101858002210D8ED0C7A06EE101A33F9221006EE93
:10186800901A3EF92210B8EEC66A07EE101AF8EE82
:10187800E66A3BF92210B8EEC77A26EE256A66EECC
:10188800A56A27EE257A26EE276A66EEA76A27EE6E
:10189800277A07EE901A51080232F8EEE77A0AEB37
:1018A8008100944280ED006A05EB810067EEA57A1D
:1018B800C0ED006A0CEB810009EB810180ED007A34
:1018C80098ED0C7A67EE877AC1ED007ABFD8D7F821
:1018D80004903D69D7E902CB60466208BB69494676
:1018E8009847D8F82C307A69D8ED0D6A1A441FED5C
:1018F8003D7A1FED3D6A2B1D904602F1040A5FED0B
:101908003F5A0022A84ED9E900EC51E0F4EEC67A1D
:10191800F1EE10FAC0F2C78247F6FE7045F82200D1
:101928000CEB0100D0ED007A66EEA77AF4EEC77AE8
:10193800F1EE10FA4BD9F4EEC67AF1EE10FAC0F2D5
:10194800BA8247F6FE70BBF1020F43F822002BD093
:10195800D9F808000844D0ED007A66EEA77AF4EECC
:10196800C77AF1EE10FA36D9F4EEC67AF1EE10FA2B
:10197800C0F2CD8247F6FE7048F82200D9F80C0074
:101988000144D1ED007A66EEA77AF4EEC77AF1EE5B
:1019980010FA1ED9F4EEC67AF1EE10FAC0F2AF8250
:1019A80047F6FE714AF82210023294427FF6B1AD32
:1019B80051080EEB81008900D0ED007A66EEA77A17
:1019C800F4EEC77AF1EE10FAA0D83046A6E7304612
:1019D800B9E73146E6E73046CEE7002C00F0E08173
:1019E800BBF1020FD8F8243000F0E1817A69DCF805
:1019F800081003EB820EC7F804909300DFED6B5AD2
:101A08000EF1040000227B61DCF80C303B61331DD1
:101A1800D7F810903D61FD69C7E902CB8C46834633
:101A280056F82210D8ED0C7A07EE101A53F8221047
:101A3800B8EEC76A07EE101A5EF82210F8EEC76A09
:101A480007EE101A26EE256A5BF82210B8EEC77A60
:101A580066EEA56A26EE276A27EE257A66EEA76A5D
:101A680027EE277A07EE901A51080232F8EEE77A45
:101A78000AEB8100944280ED006A05EB810067EE75
:101A8800A57AC0ED006A0CEB810009EB810180EDBD
:101A9800007A98ED0C7A67EE877AC1ED007ABFD8A4
:101AA800D7F804903D69D7E902CB60466208BB6964
:101AB80049469847D8F82C307A69D8ED0D6A1A4407
:101AC8009FED3E7A9FED3E6A131D9246DFF8E4C013
:101AD8000022FB612B1D364ED9E9008E4EE0F4EE54
:101AE800C67AF1EE10FAC0F2FC81304645F82200C1
:101AF8000EEB0100D0ED007A66EEA77AF4EEC77A15
:101B0800F1EE10FA49D9F4EEC67AF1EE10FAC0F205
:101B1800EF813046BBF1020F43F822002AD0D9F8F2
:101B280008000844D0ED007A66EEA77AF4EEC77A8A
:101B3800F1EE10FA35D9F4EEC67AF1EE10FAC0F2E9
:101B4800C98130464AF82200D9F80C000144D1ED89
:101B5800007A66EEA77AF4EEC77AF1EE10FA1ED98B
:101B6800F4EEC67AF1EE10FAC0F2AD813146F869AA
:101B780040F82210023294427FF6CBAC510808EBB1
:101B880081008900D0ED007A66EEA77AF4EEC77A74
:101B9800F1EE10FAA3D86046A8E76046BAE76146B6
:101BA800E5E76046CEE700BF0280FFFF0000003097
:101BB8000082FF7F007E00800000003404FF7FBFAA
:101BC80004FF7F3F002C00F0EB807A690021D8F8F1
:101BD8002430C7F8109003EB820ED7F81C909300BE
:101BE800FD610EF104021FED0C6A7B61331D154681
:101BF80056F821204808D8ED0C6ABBF1020F82F490
:101C08000002A2F5000207EE902A53F8212082F480
:101C18000002B8EEE77AA2F5000227EE067A07EE90
:101C2800902A0AEB8002F8EEE77A27EE267A67EE2A
:101C3800867A82ED007A09EB80024FEA800067EE2F
:101C4800A67AC2ED007A27D05EF8212082F400023D
:101C5800A2F5000207EE902A55F8212082F400022E
:101C6800B8EEE77AA2F5000227EE067A07EE902A88
:101C7800DCF80820F8EEE77A024427EE267A67EEC9
:101C8800867A82ED007A98ED0C7ADCF80C2067EE03
:101C9800877A0244C2ED007A02318C42A8D8D7F87C
:101CA800109060466208BB694946FD699847D8F8B4
:101CB8002C307A69D8ED0D6A1A441FED407A1FED71
:101CC800406A131D9246DFF8C4C20022FB612B1D37
:101CD800AB4ED9E9008E4EE0F4EEC67AF1EE10FA7A
:101CE800C0F2C580304645F822000EEB0100D0ED69
:101CF800007A66EEA77AF4EEC77AF1EE10FA49D9BF
:101D0800F4EEC67AF1EE10FAC0F2BF803046BBF1AD
:101D1800020F43F822002AD0D9F808000844D0ED71
:101D2800007A66EEA77AF4EEC77AF1EE10FA35D9A2
:101D3800F4EEC67AF1EE10FAC0F2AE8030464AF8F8
:101D48002200D9F80C000144D1ED007A66EEA77A9A
:101D5800F4EEC77AF1EE10FA1ED9F4EEC67AF1EE77
:101D680010FAC0F28B803146F86940F8221002322E
:101D780094427FF6CEAB510808EB81008900D0ED84
:101D8800007A66EEA77AF4EEC77AF1EE10FAA3D8D5
:101D98006046A8E76046BAE76146E5E76046CEE7F1
:101DA800224649466046BB699847FFF7B2BBC7F869
:101DB80010B0002298ED0C6A331DDFED726AD7F877
:101DC8001CB0786956F8221007EE901A53F82210C2
:101DD800B8EEE77A07EE901A51080232F8EEE77A81
:101DE80027EE267A0AEB810E94420BEB810167EE0F
:101DF800A67A27EE067A67EE867A8EED007AC1ED2E
:101E0800007ADFD88300D7F810B07B614DE61A4618
:101E1800C7F810B098ED0C6A331DDFED5B6AD7F890
:101E28001CB0786936F9221007EE101A33F922101F
:101E380007EE901AB8EEC77A51080232F8EEE77A40
:101E480027EE267A0AEB810E94420BEB810167EEAE
:101E5800A67A27EE067A67EE867A8EED007AC1EDCD
:101E6800007ADFD88300D7F810B07B6134E5F0EE54
:101E7800675AFEEEE45A15EE900A34E7F0EE675A18
:101E8800FEEEE45A15EE901A6EE7F0EE675AFEEE93
:101E9800E45A15EE900A3AE7F0EE675AFEEEE45A75
:101EA80015EE900A4BE767EEA57AFDEEE77A17EE96
:101EB800900A00B232E567EEA57AFDEEE77A17EEF2
:101EC800900A00B23FE5F0EE675AFEEEE05A15EED2
:101ED800901A4CE6F0EE675AFEEEE05A15EE900ABC
:101EE80030E6F0EE675AFEEEE05A15EE900AFDE590
:101EF800F0EE675AFEEEE05A15EE900A0AE667EE33
:101F0800A57AFDEEE77A17EE901A09B24AE567EE70
:101F1800A57AFDEEE77A17EE900A00B22CE5F0EE0E
:101F2800675AFEEEE45A15EE902A1FE467EEA57A8A
:101F3800FDEEE77A17EE902A12B2FFF731BBF0EE0A
:101F4800675AFEEEE45A15EE902AFFF7FDBBF0EE55
:101F5800675AFEEEE05A15EE902AFFF79BBBF0EEAB
:101F6800675AFEEEE05A15EE902AFFF780BB67EE3F
:101F7800A57AFDEEE77A17EE902A12B2FFF724BB96
:101F880082FF7F0000000030000000387E0080FFE4
:101F980030B5184C154685B0046004F1080EEC46BF
:101FA8000FC98EE80F00D4ED047AF5EEC07A8CE8FC
:101FB8000F00F1EE10FA1ADDB7EE006A94ED057A1B
:101FC80027EE277AC6EE276A84ED0D7AC4ED0C6AEF
:101FD8006DB1204640F8185F01F00AFE0649036912
:101FE8000020064A2162A262E36005B030BD0120EC
:101FF80005B030BD2005002400200030000000306E
:1020080000680830704700BFB1F5807F03680A4652
:1020180028BF4FF48072B1F5807F9A6094BF00208A
:10202800012070470068183001F042BE30B50468DE
:1020380083B00D46E3694BB1A3680020E26A616A88
:102048009B00009004F11C0001F0D4FDA368074830
:10205800A26A9B00216A009004F1180001F0CAFDF1
:102068000020C4E9005003B030BD00BFDD130008F4
:1020780010B4074B4FF07E51302400220320196121
:102088009C60D8605DF8044B5961C3E9062270472B
:102098002005002470B5044682B0C1F30726CDB2EE
:1020A800ADF8041001F0CAFE4FF480724FF001231E
:1020B8002060A01DA571A280E671A36002B0BDE8F2
:1020C800704000F06BBC00BF38B5044601F0B6FEA6
:1020D800002223682271834210D00122A57AE37A74
:1020E800954020602271A01D6DB243B900F032FD09
:1020F80040B22843C0B27F28A0720AD038BD00F091
:1021080029FDB0FA80F040092843C0B27F28A072A8
:10211800F4D101F093FE07EE900AF8EE677AC4ED69
:10212800037A38BD00B583B04FF0000E4FF0030CB2
:102138004274ADF80410BDF8043080F810E0A0F83F
:1021480002C0038003B05DF804FB00BF2DE9F04F27
:10215800DFF81C8300258DB0C04C037008F14003E4
:102168004260074601920E46202229464046C4F89E
:102178006831C4F86481CDE90255CDE90455CDE94B
:102188000655CDE90855CDE90A5510F009FC20227D
:10219800294604F5A170C4F83151C4F83551C4F882
:1021A8003951C4F83D5110F0FBFB019B84F84852AB
:1021B80084F830317A68002A6AD02B4604F5987181
:1021C800454606F1100A9E46F01856F803B0E21884
:1021D8000EF1010ED0F80CC0D0F80490D0F80880A9
:1021E80044F803B0C2F80CC04FF0000CC2F80490D9
:1021F800C2F80880008A25F802CB10821AF803205A
:1022080001F8012F002A70D07A684FF001001233CC
:10221800724584F84802D7D84FF4802290489DF838
:10222800043008214FF000084FF00009C4F8843149
:102238000023C4E95B020122C4F8743184F88031B8
:10224800C4E95E2194F84812C4E96489A9B3C4F8C2
:102258009821002284F8813184F888313B78C4E9D8
:102268006722002B38D0012200200121013B84F88D
:10227800A421C4E96C01082B30D8DFE813F0BD00B5
:10228800C200C700CC00D100D600DB00E100E800A6
:102298009DF804300121C4F87421C4F884314FF446
:1022A800802384F880216E4AC4E95B230823002236
:1022B800C4E95E130023C4E964230123002284F8DF
:1022C8008131002384F888310323C4F898313B789E
:1022D800C4E96722002BC6D184F8A431614802F012
:1022E80029FE034638B1FFBEFEE77A68123372450D
:1022F8003FF66AAF90E702A95A48029302F078FFC6
:102308008246002876D1042240F2FF710A90CDE976
:10231800081294F83021002A00F0F3804FF00608E4
:102328000AEBCA034FEACA0904EB43035B7C072B99
:1023380007D8DFE803F0595C5653504D4A04072389
:1023480007930FFA8AF6D14406EBC60604EB49094F
:1023580004EB46077500384600F020FB99F810306A
:10236800042B00F3AA80022B00F3BD8000F0B98093
:1023780004EB0A03002283F8202114F81630002BFE
:1023880078D0022B00F08A80012B40F0B2807B7855
:10239800012B00F0B080002B334B18BF002305A998
:1023A8003048CDE9053802F0F1F9002840F0AC805A
:1023B8000AF1010A94F830315FFA8AFA534540F27B
:1023C800A0802A4B53F82A80AAE706230793B8E788
:1023D80005230793B5E704230793B2E7032307937D
:1023E800AFE702230793ACE700230793A9E701238C
:1023F8000793A6E7FFBEFEE703224023C4E96A234A
:102408006CE707226023C4E96A2367E70F22802369
:10241800C4E96A2362E71F22A023C4E96A235DE7AF
:102428003F22C023C4E96A2358E77F22E023C4E996
:102438006A2353E7FF224FF48073C4E96A234DE708
:1024480040F2FF124FF49073C4E96A2346E740F262
:10245800FF324FF4A073C4E96A233FE7580500240C
:1024680000200240C40600240002B025302A0108DA
:10247800004000307B78062B37D0072B3DD0022B4D
:102488004AD0032B4AD0002B4CD0012B48D0042B28
:102498004AD0052B254B18BF002380E77B78042BF7
:1024A80025D0052B2BD08BB3012B31D0022B31D06B
:1024B800032B1F4B18BF002371E70323043504EBDC
:1024C8000A0B4FF0000925448BF82031284609F102
:1024D800010900F063FA9BF8203104354B45F5DC1F
:1024E8004BE70123EAE70223E8E7124B57E7124BD1
:1024F80055E7002353E7114B51E7114B4FE7114BB9
:102508004DE70DB0BDE8F08FFFBEFEE70E4B46E786
:102518000E4B44E70E4B42E70E4B40E70E4B3EE7AF
:102528000E4B3CE70E4B3AE70E4B38E70000B84F2E
:10253800002090360800900C1000C0102000F01405
:102548008000501D000180210004002A0008302E60
:10255800001060320040C03A0080F03E0000524750
:10256800000021430000844B38B5094C40F2FF724B
:102578004FF0011104F5B675284602F0E7FD94F80E
:102588003021D4F864112846BDE8384002F052BB27
:1025980058050024064B0F29D3F8643198BF03EB84
:1025A80041031B8800EE103ABBEEC80A704700BF13
:1025B80058050024214B02689A4200D07047204AEF
:1025C80000232048D2F8D81030B51F4C41F0200124
:1025D80083B0C4F8D001092004F5E875C4E975038F
:1025E8004FF48060C2F8D810D2F8D8204FF40061B8
:1025F800C4E9773094F8480202F02002C4F8E411E4
:102608004FF40051984201922846C4F8E811C4E9F1
:102618007C33019B14BF00234FF48073C4F8EC3162
:1026280003F00CF808B1FFBEFEE704F5B673C4F872
:10263800B851C4F8083203B030BD00BF00200240D2
:10264800004402584000024058050024014803F0A5
:102658006DBB00BF2807002402682DE9F84F4B4BDB
:102668009A4201D0BDE8F88F494D95F84832002BC1
:10267800F8D095F83031002B77D0002405F10C09FB
:1026880005F5A17605F59877A04613E003F001015A
:1026980017F811BCA9F1080000F06AFABBF1010FA4
:1026A80025D895F83031013409F112090236A2B261
:1026B80093422BD917F8012F002AF4D0D5F86431AA
:1026C8000021327833F81400D5F8683103EB04138D
:1026D80023F81200338801339BB233805FFA83FA00
:1026E8003A789A42D2D88A46A6F80080D0E7CAF348
:1026F8004001A9F1040000F03BFABBF1020FCAF354
:102708008001CED0484600F033FACAE7002395F896
:102718004802204909229842C5F8D8314FF4806010
:10272800C5F8D011C5F8D4214FF400614FF4005218
:10273800C5F8DC3108BF4FF48073C5F8E821C5E956
:10274800780100221448C5E97B32C5F8F42102F06B
:1027580075FF08B1FFBEFEE795F83021D5F8641182
:102768000E48BDE8F84F02F065BA0A4909224FF44D
:102778008060C5F8D831C5E974124FF400614FF490
:102788000052C5E97730C5E97912DAE7002002403E
:10279800580500244000024028070024C4060024ED
:1027A800704700BF10B592B0ADF804100180C9B2EF
:1027B800149C0B29C460C0E901233FD090F801C0E4
:1027C800BCF10F0F3AD8022A3FD0032A02D0012ABF
:1027D80000D000220E92012B02D0022B18BF00233A
:1027E800022C0F932CD0032C2AD0012C28D00023A4
:1027F8000A29109327D85C4A02EB812202610A2930
:1028080014D8DFE801F0A39587796B5D4F41332534
:102818000600564BD3F8E01041F48061C3F8E0108D
:10282800D3F8E03003F480630C930C9B01230DA9CB
:10283800104603FA0CF30D9303F0CAFD12B010BD55
:102848000A291094D7D90022D8E711220E92C2E79C
:10285800464BD3F8E01041F40071C3F8E010D3F808
:10286800E03003F400730B930B9BDFE73F4BD3F887
:10287800E01041F48071C3F8E010D3F8E03003F4BD
:1028880080730A930A9BD1E7384BD3F8E01041F0E4
:102898008001C3F8E010D3F8E03003F08003099317
:1028A800099BC3E7314BD3F8E01041F04001C3F86E
:1028B800E010D3F8E03003F040030893089BB5E735
:1028C8002A4BD3F8E01041F02001C3F8E010D3F808
:1028D800E03003F020030793079BA7E7234BD3F8C7
:1028E800E01041F01001C3F8E010D3F8E03003F035
:1028F80010030693069B99E71C4BD3F8E01041F0B0
:102908000801C3F8E010D3F8E03003F0080305939A
:10291800059B8BE7154BD3F8E01041F00401C3F891
:10292800E010D3F8E03003F004030493049B7DE740
:102938000E4BD3F8E01041F00201C3F8E010D3F8D1
:10294800E03003F002030393039B6FE7074BD3F8D0
:10295800E01041F00101C3F8E010D3F8E03003F0D3
:1029680001030293029B61E70000025800440258E9
:1029780008B5012143780069994089B203F030FF16
:10298800003818BF012008BD01230A4641780069B4
:1029980003FA01F189B203F029BF00BF8378022B43
:1029A80030B504468FB037D0032B33D0012B31D04C
:1029B80000230A93E378012B2AD0022B28D0002386
:1029C8000B93002320460C9301F05AFD0546204640
:1029D80001F05EFD23780990082B13D8DFE803F097
:1029E8001F3245586B7E91A40500594BD3F8E0205F
:1029F80042F48072C3F8E020D3F8E03003F4807327
:102A08000893089B09A9284603F0E2FC0FB030BDE3
:102A18000B93D6E70A93CDE711230A93CAE74C4BE9
:102A280009A92846D3F8E02042F00102C3F8E020C3
:102A3800D3F8E03003F001030093009B03F0C8FCD7
:102A48000FB030BD424B09A92846D3F8E02042F028
:102A58000202C3F8E020D3F8E03003F00203019348
:102A6800019B03F0B5FC0FB030BD394B09A92846CE
:102A7800D3F8E02042F00402C3F8E020D3F8E030B5
:102A880003F004030293029B03F0A2FC0FB030BDD5
:102A98002F4B09A92846D3F8E02042F00802C3F8D2
:102AA800E020D3F8E03003F008030393039B03F01E
:102AB8008FFC0FB030BD264B09A92846D3F8E0207B
:102AC80042F01002C3F8E020D3F8E03003F010031E
:102AD8000493049B03F07CFC0FB030BD1C4B09A988
:102AE8002846D3F8E02042F02002C3F8E020D3F8CB
:102AF800E03003F020030593059B03F069FC0FB059
:102B080030BD134B09A92846D3F8E02042F0400213
:102B1800C3F8E020D3F8E03003F040030693069BA7
:102B280003F056FC0FB030BD094B09A92846D3F86D
:102B3800E02042F08002C3F8E020D3F8E03003F050
:102B480080030793079B03F043FC0FB030BD00BF21
:102B58000044025838B5054601F092FC0446284660
:102B680001F096FC01462046BDE8384003F038BE27
:102B780070B506460D4601F083FC0446304601F068
:102B880087FC2A1E0146204618BF0122BDE8704076
:102B980003F02CBE0023122270B586B0CDE90223C3
:102BA80004930368032B01D804230593061D841D91
:102BB800304601F065FC0546304601F069FC0346E5
:102BC80001A92846019303F003FC204601F058FCB4
:102BD800034620461C4601F05BFC01A9034620463B
:102BE800019303F0F5FB06B070BD00BF634A0368AC
:102BF800934210B58CB028D0614A934258D0614AAC
:102C0800934200F09480604A934201D00CB010BD0A
:102C18005E4C5F48D4F8E03043F00203C4F8E0307B
:102C2800D4F8E03003F002030A930A9BFFF7B2FFDF
:102C3800D4F8F43043F08003C4F8F430D4F8F43016
:102C480003F080030B930B9BE0E7504C5148D4F8FA
:102C5800E03043F00203C4F8E030D4F8E03003F089
:102C680002030193019BFFF795FFD4F8E830002297
:102C78001F2043F400131146C4F8E830D4F8E830B4
:102C880003F400130293029BD4F8D83043F00103F5
:102C9800C4F8D830D4F8D83003F001030393039B69
:102CA80002F01AFB1F200CB0BDE8104002F052BB26
:102CB800364C3948D4F8E03043F08003C4F8E030AB
:102CC800D4F8E03003F080030493049BD4F8E03098
:102CD80043F00203C4F8E030D4F8E03003F0020314
:102CE8000593059BFFF756FFD4F8E8300022212012
:102CF80043F480031146C4F8E830D4F8E83003F40C
:102D080080030693069BD4F8D83043F00103C4F837
:102D1800D830D4F8D83003F001030793079B02F0AA
:102D2800DBFA21200CB0BDE8104002F013BB1B48B1
:102D3800FFF730FF154B00224820D3F8E840114632
:102D480044F40004C3F8E840D3F8E84004F400046D
:102D58000894089CD3F8D84044F00104C3F8D8403C
:102D6800D3F8D83003F001030993099B02F0B4FAB1
:102D780048200CB0BDE8104002F0ECBA0054004006
:102D880000580040005C0040001C005800440258F5
:102D9800300A0024A80700248008002458090024C9
:102DA8002DE9F0431A4B87B000254FF010099E46D5
:102DB800EC46184BFF22E04667461A700EF11806DB
:102DC8000EF13004CDE90055CDE90255ADF800907B
:102DD800BCE80F00CDE90455AEE80F009CE80300FD
:102DE8000095ADF800908EE80300B8E80F000FC614
:102DF8009CE803000095ADF8009086E803000FCF2B
:102E08000FC49CE8030084E8030007B0BDE8F08322
:102E180004000024A407002410B5EFF3108472B650
:102E2800084B1A78120602D504B962B610BD1B7891
:102E3800D82205485BB202FB0300143002F076FF8B
:102E4800F2E700BFA4070024A8070024014804F003
:102E580065BB00BF34080024014804F05FBB00BF15
:102E68000C090024014804F059BB00BFE409002400
:102E78002DE9F0430F68D8243F4D85B007FB04F4D3
:102E8800032F05EB0403036040DCCB680E46012BDF
:102E98003CD84DD04FF0D808B646DFF8FC9008FB78
:102EA8000758BEE80F00C446ACE80F00DEF8003053
:102EB8000DF1100ECCF80030D8F808C099E80F00D2
:102EC8000EE90F000EEB8703BCF1010F53F8103C1D
:102ED800C8F88C3031D0BCF1020F42D0BCF1000FE1
:102EE80035D0317C8C34D823002201202C4403FBBC
:102EF80007534900C3E92602C3F894102046C3E9E2
:102F08002822C3E92A2204F0FBF818B1012005B0F1
:102F1800BDE8F0830146204604F00CFB0028F5D1FB
:102F28000146204604F030FB003818BF0120EEE7C8
:102F38000B7C103B672BADD9E8E701F01BF90F4B71
:102F480098420CBF0E4B0F4BC8F89030C9E701F000
:102F580011F90A4B98420CBF0B4B0C4BC8F8903038
:102F6800BFE701F007F9054B98420CBF084B094B26
:102F7800C8F89030B5E700BFA8070024000E27075F
:102F88002D0FB0303211D0205F4390608A62E0305C
:102F9800200BA0101A098010B82901082DE9F0416A
:102FA800D0F8008082B00D4617461E4608F18C0402
:102FB800204604F0BBFA2028FAD1D8F80C3073B9AF
:102FC8006D002046089C33463A46A9B2009404F0A6
:102FD800EDF8003818BF012002B0BDE8F081089B69
:102FE80032463946204604F0B5F9F2E7044B102280
:102FF8001A7483F8E82083F8C02183F89822704770
:10300800A807002430B5002395B04FF4807106223C
:1030180004460B9306921393CDE90C13CDE90E33B6
:10302800CDE9113301F0A8F807282BD004F11005D9
:1030380041F2883206A9284605F0B8F828B10123DC
:10304800184684F85C3015B030BD0222022306A968
:103058002846CDE9002310220123CDE902230022CE
:103068004FF48003CDE9042305224FF080730692C4
:103078006A460F9341F2883305F004FA0028DED13E
:1030880015B030BD0323012084F85C3015B030BD85
:1030980070B50023A4B04FF080724FF480750446D9
:1030A800ADF806300D93CDE910320122CDE90E536B
:1030B800CDE91223CDE91433002943D0F02300F1E0
:1030C800100508AEADF80630C02341F2883231460B
:1030D8002846089305F06AF828B10123184684F8B1
:1030E8005C3024B070BD41F288320DF106012846EB
:1030F80005F0C6F803460028EFD105224FF4807189
:103108001E93284616924FF080721B9321931F92AC
:1031180002AA9FED1F7BCDE91C13CDE922338DED6B
:10312800027B9FED1D7B41F2883316A98DED047B50
:103138009FED1B7B8DED067B05F0A4F90028CCD113
:1031480024B070BD00F1100508AE612341F2883249
:1031580031462846089305F029F80028BDD141F2E8
:1031680088320DF10601284605F008F90028B4D187
:10317800BDF80630204623F0780343F04003ADF84D
:103188000630FFF73FFF00289ED0A6E7AFF3008088
:103198000000000001000000100000000100000015
:1031A80000000000000040002DE9F04F00234FF41C
:1031B800807501264FF0807804462DED028BABB068
:1031C8008DF8073013932193299314950E96CDF813
:1031D8005C80CDE91533CDE91863CDE91A33CDE923
:1031E8002253CDE92433CDE9273306231C9300F07D
:1031F800C3FF072808D004F1100741F288321CA940
:10320800384604F0D3FF40B10123184684F85C30F7
:103218002BB0BDEC028BBDE8F08F4FF0020A4FF0E7
:10322800020B4FF0050941F2883308AA1CA9384659
:10323800CDF89480CDF870909FED2D8BCDE908AB3B
:103248004FF0000A4FF4800B8DED0A8BCDE90CABE3
:1032580005F018F90028D7D141F2883238460EA96E
:1032680004F0A4FF0028CFD1402341F288320DF1A9
:10327800070138468DF8073005F002F80028C3D159
:1032880041F288330EA902AA3846CDF83890CDF815
:103298005C809FED197B8DED048BCDE906AB8DED40
:1032A800027B05F0EFF803460028ADD1CDF8709009
:1032B8004FF00109CDF894804FF00008219308AA37
:1032C80029931CA938462295CDE92333CDE9273324
:1032D80041F288338DED0A8BCDE90CABCDE9088935
:1032E80005F0D0F8002893D0304684F85C608FE76A
:1032F8001000000001000000400000004000000035
:103308002DE9F043624CA3B00D46046000F034FF91
:10331800072800F0A980286823466968AA6807C3B7
:103328001E46AB8926F8043B3046257B677B04F0B4
:103338001FFFE0B9574B012D4FF00108E0612361F1
:1033480014BF4FF480134FF40003C4E9058893FABF
:10335800A3F3B3FA83F34FF48079013BC4F82490C4
:10336800C4E90B003046236204F096FE38B101220E
:10337800134684F85C20184623B0BDE8F083662322
:103388000B90139041F2883206A90693CDE90C9070
:10339800CDE90E00CDE91100304604F007FF002802
:1033A800E5D1992341F2883206A93046069304F004
:1033B800FDFE0028DBD105231C9019906A46149362
:1033C8004FF08073219014A91D9341F288339FED2B
:1033D8002A7BCDE91A90CDE91F008DED007B9FED8A
:1033E800287B30468DED027B9FED277B8DED047B9E
:1033F80005F048F80028BAD129462046FFF748FECC
:103408000028B4D12046FFF7CFFE03460028AED1EE
:10341800002FB0D1189330460027002606AA14A919
:10342800CDF86890CDE91F33EB2314934FF4406334
:103438001B934FF4005317934FF440431C93A0235E
:103448001693062319934FF0805321934FF040733E
:10345800CDE906671D9305F08DF8034600288AD04C
:10346800434684F85C8086E701230322184684F8E3
:103478005C2023B0BDE8F0830000000001000000DC
:1034880010000000010000000000000000004000E3
:10349800080B0024005000522DE9F04F8FB0414B2B
:1034A8000024026800AF9A427C63C7E90944C7E96F
:1034B8000B4403D03C37BD46BDE8F08F3A4B40F68D
:1034C80009213A48EB46D3F8D42007F11C0607F146
:1034D800220A4FF0020942F480424FF00308C3F871
:1034E800D420D3F8D42002F48042BA60BA68D3F862
:1034F800E02042F04002C3F8E020D3F8E02002F0D8
:103508004002FA60FA68D3F8E02042F02002C3F8DB
:10351800E020D3F8E02002F020023A613A69D3F8BB
:10352800E02042F01002C3F8E020D3F8E02002F0D7
:1035380010027A617A69D3F8E02042F00202C3F8F7
:10354800E020D3F8E030F86103F002033984BB616E
:10355800174B7B60BB697B6853F8040F7B6000F0F6
:103568008FFF7B680546186800F092FF16F8013B4C
:10357800786207F124012846C7F830807B63C7E9E1
:103588000A9402F025FF5645E5D100225C20114639
:1035980001F0A2FE5C2001F0DDFE3C37DD46BD46B1
:1035A800BDE8F08F00500052004402580A0A090989
:1035B800640B0024114B02689A4200D07047104AED
:1035C80070B5D2F8D4300F4C23F4804304F11806B8
:1035D800C2F8D43054F8040F00F052FF05462068B2
:1035E80000F056FF0146284603F032F8B442F1D104
:1035F8005C20BDE8704001F0BBBE00BF0050005227
:1036080000440258640B0024014805F03FB800BF8D
:10361800180B0024084B1A1D981D03F1080110B45B
:103628009C1C9A6603F10A02C3E91834C3E91B011A
:103638005DF8044B5A677047080B002438B50368D7
:1036480071B9026A00F1280500F5AC74012A0CBFB3
:10365800002140218BBB1D4B5722C0F858310DE08B
:10366800426A00F1C00500F5E874012A0CBF002188
:103678004021EBB1164B5A22C0F8D0310023204626
:10368800C4E901214FF480524FF4806163626261A2
:103698004FF48042C4E903314FF48073C4E9062330
:1036A8004FF40033236201F0C9FF58B1FFBEFEE7B3
:1036B800084B5822C0F8D031E0E7074B5922C0F830
:1036C8005831DBE7C5E92044A56338BD1000024046
:1036D8007000024028000240580002402DE9F043E3
:1036E800821D05468BB0031D05F10A010830CDE99E
:1036F800052305F10C02AB69CDE907010992002BFE
:103708003DD0EB69B3FA83F84FEA58180123022237
:1037180005AE0AAF4FF006090393CDE9012356F829
:10372800044B2B792278934216D02B68F3B1012BE6
:1037380002D1F2B10A230493204600F0A9FE034601
:103748002046009300F09CFE694602F041FEBE420E
:10375800E5D10BB0BDE8F083697963789942E4D18B
:10376800B8F1000FF3D02B68002BE0D1CDF8109002
:10377800E2E76378022B14BF0A230823DBE74FF044
:103788000108C3E7534A0368934230B505468BB036
:1037980055D02032934252D04F4A934204D020321F
:1037A800934201D00BB030BD4C4C4D48D4F8E030BA
:1037B80043F00103C4F8E030D4F8E03003F001032B
:1037C8000593059BD4F8E03043F00803C4F8E030D3
:1037D800D4F8E03003F008030693069BD4F8E030F1
:1037E80043F04003C4F8E030D4F8E03003F040037D
:1037F8000793079BD4F8F03043F40003C4F8F03083
:10380800D4F8F03003F400030893089BFFF766FF31
:10381800D4F8D830296843F001032F4A3048C4F857
:10382800D830891AD4F8D83018BF012103F0010321
:103838000993099B0BB0BDE83040FFF7FFBE274C4A
:103848002848D4F8E03043F00103C4F8E030D4F855
:10385800E03003F001030093009BD4F8E03043F01C
:103868001003C4F8E030D4F8E03003F010030193FB
:10387800019BD4F8E03043F04003C4F8E030D4F8BA
:10388800E03003F040030293029BD4F8F03043F495
:103898008003C4F8F030D4F8F03003F480030393C5
:1038A800039BFFF71BFFD4F8D830296843F00103C6
:1038B800084A0C48C4F8D830891AD4F8D83018BF48
:1038C800012103F001030493049B0BB0BDE83040D1
:1038D800FFF7B4BE04580140045C0140004402589C
:1038E800DC0D0024800B0024014802F01FBA00BF41
:1038F800D80C0024014802F019BA00BF500D00246A
:10390800014802F013BA00BF340F0024014802F046
:103918000DBA00BFAC0F00241A4A0368934210B4D2
:103928000BD02032934208D0174A934216D0203247
:10393800934213D05DF8044B7047144B0022D3F820
:103948005442C3F85822002CF4D0D3F84802D3E9E3
:10395800931223465DF8044B520818470B4B00227C
:10396800D3F8B044C3F8B424002CE3D0D3F8AC2483
:10397800D3F8A814D3F8A404520823465DF8044BDE
:10398800184700BF04580140045C0140800B002424
:10399800184A0368934210B40BD02032934208D0DF
:1039A800154A934217D02032934214D05DF8044B45
:1039B8007047124BD3E994245208C3F85822002CBC
:1039C800F4D0D3E99201234601EB820100EB820097
:1039D8005DF8044B1847094BD3F8AC24D3F8B0442E
:1039E8005208C3F8B424002CE0D0D3F8A814D3F8B4
:1039F800A404E8E704580140045C0140800B00245B
:103A08002DE9F04F0C684FF41776754F87B004FB1B
:103A180006F6012C07EB060AC0F800A000F3A08008
:103A28000D468E464FF00008D44669A3D3E900231B
:103A380069A1D1E90001CDE9022306ABCAF8508299
:103A480003EB8403CDE9040153F810BC53F8083C98
:103A5800CAE992880193BEE80F00ACE80F00BEE8FF
:103A68000F00ACE80F00019B9EE80300CAF828B0DD
:103A7800CAF8C0308CE803002B69042B0CD8DFE8A7
:103A880003F0737D879103004FF41773554A03FBC6
:103A980004739A64C3F8E020AA692B6A002A43D009
:103AA800002B4FF4177308BF022203FB047318BFDF
:103AB8000322DA6201221A63EA696B6A002A40D19A
:103AC800191E4FF4177318BF012103FB0473C3E9D0
:103AD80031126B69022B05D8434A12F80380434A16
:103AE80052F823904FF4177306F1280042464946CE
:103AF80003FB04740023384463646363E365C4F818
:103B0800DC30C4F8CC30C4F8F430C4E90F33C4E96D
:103B18001533C4E93533C4E93B33022306F058FEB4
:103B2800002849D0FFBEFEE7191E4FF4177318BFCF
:103B3800012103FB0473C3E90B12EA696B6A002ACB
:103B4800BED0002B4FF4177308BF022203FB047387
:103B580018BF0322C3F8C4200122C3F8C820B8E75D
:103B6800012007B0BDE8F08F4FF417734FF4FA52F5
:103B780003FB04739A64C3F8E0208DE74FF41773CE
:103B88004FF47A5203FB04739A64C3F8E02083E786
:103B98004FF417734FF4FA4203FB04739A64C3F8A3
:103BA800E02079E74FF417734BF6803203FB047378
:103BB8009A64C3F8E0206FE706F1C000022342468A
:103BC8004946384406F004FE0028CAD0FFBEFEE786
:103BD80004580140045C014024580140245C014021
:103BE800800B002400770100702A0108742A01085C
:103BF8000068704770B5046882B015460E46C4F870
:103C08005032C4E99212069AC4F85422A269012AD1
:103C180026D0626A012A9AB211D0294604F1C0005E
:103C2800019206F091FE236A019A012B10D02946D1
:103C380004F1280006F088FE002002B070BD04F1EF
:103C4800C000019206F012FF236A019A012BEED1FF
:103C5800314604F1280006F009FF002002B070BDCB
:103C6800226A012A9AB211D0294604F12800019249
:103C780006F06AFE636A019A012B10D0294604F106
:103C8800C00006F061FE002002B070BD04F12800FB
:103C9800019206F0EBFE636A019A012BEED13146E0
:103CA80004F1C00006F0E2FE002002B070BD00BFC3
:103CB80003681B69042B05D8044A02EB830393EDC0
:103CC800000A70479FED020A704700BF802A01086A
:103CD80000803B470368D3F858027047704700BF1D
:103CE80008B500F0DDFCBDE8084001F0BDBB00BF31
:103CF800064808B503680BB102F07CFD0448036868
:103D08001BB1BDE8084003F06BBC08BD4814002493
:103D180040100024064808B503680BB102F06AFD9C
:103D2800044803681BB1BDE8084003F059BC08BD4E
:103D38004814002440100024064808B503680BB155
:103D480002F058FD044803681BB1BDE8084003F0C1
:103D580047BC08BD4814002440100024364BDA6ADA
:103D6800520062D59A6A9A6A9A6A9B6A180600D5BE
:103D780000BE314B9B6A990600D500BE2E4B9B6A4C
:103D8800DA0600D500BE2C4B9B6A1B0700D500BE87
:103D9800294B9B6A980700D500BE274B9B6AD90719
:103DA80000D500BE244B9B6A1A0400D500BE224BE6
:103DB8009B6A9B0400D500BE1F4B9B6AD80400D5A4
:103DC80000BE1D4B9B6A190500D500BE1A4B9B6AA5
:103DD8005A0500D500BE184B9B6A9B0500D500BE4E
:103DE800154B9B6AD80500D500BE134B9B6A9901F9
:103DF80000D500BE104B9B6ADA0100D500BE0E4B01
:103E08009B6A1B0300D500BE0B4B9B6A580300D569
:103E180000BE094B9B6A990300D500BE064B9B6AFE
:103E2800DA0306D400BE00BEFEE7DB6A9B07FAD5BC
:103E3800F8E700BEF6E700BF00ED00E000F03CBC8C
:103E480000F040BC0A4B9B6803F17843B3F5003F90
:103E58000BD3084B986848B19868012806D0986831
:103E6800022803D09B68032070470120704700BFD9
:103E780000ED00E0000080382DE9F041CEB00446A6
:103E88004C2200210AA80EF08BFD2022002102A856
:103E98000EF086FDBC2200211EA80EF081FD022036
:103EA80004F012F82368012B4FF0000354D0534A52
:103EB80002250193C820D16A514B21F00101D1623A
:103EC800D26A02F0010201929A6942F440429A6170
:103ED8009B6903F440430193019B494A93699B04FE
:103EE800FCD548490224002201268B6A04274FF09A
:103EF800080823F0030323438B62052316900AA8BE
:103F080018934FF480331096179419941597CDF899
:103F18006880CDE91B222122CDE91344CDE90A238B
:103F280004F0BCFC00B1FEE73F220323294602A8A7
:103F3800CDE9022300220823CDE9042340224023AF
:103F4800CDE9062340234FF48062CDE9082304F02D
:103F5800D3FF0346B8B1FEE7294A04250093F020B1
:103F68009169264B41F440419161926902F44042C3
:103F78000092DA6A42F00102DA62DB6A03F00103B6
:103F88000093009BA9E720224FF4805125934FF41A
:103F980040152B9280222D931EA83093269135919F
:103FA8004FF48071249234920C223394439140F25E
:103FB800271120921022CDF884802A971F96CDE9E8
:103FC8002E34CDE93B334FF48033CDE9224631938B
:103FD800002446930623CDE93E4527934FF480639A
:103FE800094C2C931E94CDE9281205F0E1F900B193
:103FF800FEE703F08FFF4EB0BDE8F08100040058E3
:1040080000480258004402580F130F0370B584B0DB
:10401800012401F0D7F94FF480764FF04052194B44
:1040280068460025ADF800400396CDE9012301F06C
:10403800E7F919224FF0404368468DF808200193AC
:104048008DF80F40ADF80D608DF801408DF80A50DD
:1040580001F0D6F902230B2268468DF80F508DF82F
:1040680001304FF062538DF808200193ADF80D40F0
:104078008DF80A4001F0C4F9042001F0B1F904B048
:1040880070BD00BF0E00010330B50D46044685B073
:10409800D1E9000184E8030000F0D2FAAB79A3B3B8
:1040A8000AF08EF8FEF77CFE08F0F4FC09F080FDBB
:1040B8002B798BBB6B799BB1BFF34F8FBFF36F8F9E
:1040C8002A4B0022C3F85022BFF34F8FBFF36F8FE4
:1040D8005A6942F400325A61BFF34F8FBFF36F8FB2
:1040E8004FF0FF3200230024002569462048029241
:1040F8008DF80C30CDE9004509F0ECF81C4809F0C2
:1041080051F908F0F7F805B030BD2046FFF7B4FEC6
:104118002046FFF77BFFC3E7144C0023C4F8843024
:10412800BFF34F8FD4F8801043F6E07EC1F34E3CC6
:10413800C1F3C9014FEA4C1C0CEA0E000B4640EAD9
:104148008372013BC4F860225A1CF8D1ACF1200CF0
:104158001CF1200FF0D1BFF34F8F636943F4803314
:104168006361BFF34F8FBFF36F8FA3E700ED00E0EC
:104178003810002404F0F0BF1C4B9B6803F1784210
:10418800B2F5003F25D3B3F5803F20D303F1604259
:10419800B2F5003F1FD303F15C42B2F5002F1CD3E8
:1041A80003F17042B2F5902F19D303F14842B2F5EA
:1041B800803F16D303F18042B2F1806F13D303F12D
:1041C800E043B3F5000F2CBF0820072070470120FB
:1041D8007047002070470220704703207047042072
:1041E8007047052070470620704700BF00ED00E0CB
:1041F80003480023034A044903600DF06DB900BF6A
:104208003810002400000024E53C000810B4204CBD
:104218000022204B83B0D4F888101F4841F4700165
:10422800C4F8881019681D4C41F0010119601A6121
:10423800196808401A4918609A61DA611A629A6224
:10424800DA621A635A639A63DA631A645A641868FA
:1042580020F4802018601A66D3F8DC2042F060420F
:10426800C3F8DC20D3F8DC300193019B23681940A4
:10427800B1F1005F03D20B4B0122C3F80821044BB4
:104288004FF000629A6003B05DF8044B704700BFBE
:1042980000ED00E0004402587FEDF6EA0010005CF3
:1042A8000000FFFF0080005100F57171D0F8040490
:1042B80007F008BCC1EBC10300EB8303D0F804048A
:1042C800D3F8082207F02CBCC1EBC10300EB830331
:1042D800D0F804049A6C07F061BC00BFD0F804045D
:1042E80007F000BDC16810B5044619B1022900D015
:1042F800FEE70121D4F8040407F0DEFCD4F8040436
:10430800BDE8104007F0B0BC10B50446D0F804046E
:1043180007F0D6FC2268D2F8003E43F00103C2F849
:10432800003E236A23B1034A136943F0060313616D
:1043380010BD00BF00ED00E0D0F8040407F0CABCCF
:10434800D0F8040407F0DEBCD0F8040407F0D8BCA9
:10435800D0F8040407F0D8BCD0F8040407F0D6BCA1
:104368009446D0F898021A4608B5634603F09CFCB8
:10437800032802D8024B185C08BD022008BD00BF04
:10438800A42A0108D0F8980208B503F01BFD0328F9
:1043980002D8024B185C08BD022008BDA42A0108F7
:1043A800D0F8980208B503F051FD032802D8024B53
:1043B800185C08BD022008BDA42A01080A06D0F826
:1043C800983206D4C1EBC10103EB810191F8FE01DB
:1043D800704701F07F01C1EBC10103EB810191F846
:1043E8003E007047D0F8980208B503F047FC032850
:1043F80002D8024B185C08BD022008BDA42A010897
:10440800D0F8980208B503F0B5FC032802D8024B8F
:10441800185C08BD022008BDA42A0108D0F898023B
:1044280008B503F07FFC032802D8024B185C08BDCE
:10443800022008BDA42A0108D0F8C00207F014BF62
:10444800D0F8C00207F028BFD0F8C00207F030BF8C
:10445800704700BFD0F8C00207F016BFD0F8C002FE
:1044680007F016BFD0F8D00308B502F083FD032883
:1044780002D8024B185C08BD022008BDA82A010812
:10448800024B027853F82200704700BFCC2A01087B
:10449800024B427833F81200704700BFAC2A01087B
:1044A8008CB00A2814D8DFE800F01523313F4D5BA3
:1044B8006977859306004D4BD3F8E02042F480627B
:1044C800C3F8E020D3F8E03003F480630B930B9B30
:1044D8000CB07047454BD3F8E02042F00102C3F816
:1044E800E020D3F8E03003F001030193019BEFE7EC
:1044F8003E4BD3F8E02042F00202C3F8E020D3F8A4
:10450800E03003F002030293029BE1E7374BD3F854
:10451800E02042F00402C3F8E020D3F8E03003F0D2
:1045280004030393039BD3E7304BD3F8E02042F016
:104538000802C3F8E020D3F8E03003F0080304933E
:10454800049BC5E7294BD3F8E02042F01002C3F8DA
:10455800E020D3F8E03003F010030593059BB7E79C
:10456800224BD3F8E02042F02002C3F8E020D3F831
:10457800E03003F020030693069BA9E71B4BD3F812
:10458800E02042F04002C3F8E020D3F8E03003F026
:1045980040030793079B9BE7144BD3F8E02042F0B6
:1045A8008002C3F8E020D3F8E03003F080030893DA
:1045B800089B8DE70D4BD3F8E02042F48072C3F8D6
:1045C800E020D3F8E03003F480730993099B7FE778
:1045D800064BD3F8E02042F40072C3F8E020D3F889
:1045E800E03003F400730A930A9B71E70044025811
:1045F800704700BF0F4B1B780BB90120704710B5EF
:1046080004464FF47A700C4AB0FBF3F31068B0FB21
:10461800F3F000F0C1FE0F2C00D808B1012010BD46
:10462800002221464FF0FF3000F056FE034B0020D9
:104638001C6010BD540000244C00002458000024C5
:1046480038B50320124D00F035FE124C04F0B4FBCF
:10465800114A12499369C3F30323CB5C03F01F0388
:1046680020FA03F30E202B60926902F00F028A5C95
:1046780002F01F02D3402360FFF7BCFF10B10124F2
:10468800204638BD0446FFF7B3FF204638BD00BFBB
:104698004C0000245000002400440258942A0108C9
:1046A800034A044B11681B780B441360704700BF22
:1046B8000C17002454000024014B1868704700BFF1
:1046C8000C17002438B50446FFF7F6FF0546631CAF
:1046D80002D0044B1B781C44FFF7EEFF431BA34298
:1046E800FAD338BD54000024014B1868000C7047F9
:1046F8000010005C704700BF806B08B5FFF7FAFF39
:1047080008BD00BF836B5A6D12F0500F5A6D10B57B
:104718001DD1196842F400725A650A6812F0080F30
:10472800CA681BD012F4406F0DD1CA6894040AD429
:104738005A6D22F480725A655A6DD10403D45A6DA9
:1047480042F001025A651846FDF786FF10BDD206F1
:104758000AD4DB6CBDE81040DB6C18479007E7D043
:104768001846FDF779FFF1E71846FEF719F810BD6E
:10477800806B08B5436D43F040034365836D43F098
:1047880004038365FEF70CF808BD00BFF0B50022EE
:1047980083B0019290F85020012A00F01C81034652
:1047A80001201A6883F850009468640700F18A8031
:1047B8000C68C4F31305002D40F08F80C4F38464A3
:1047C800A0404D684FF01F0ED6694FEA951C304344
:1047D8000CF00C0CD06105F01F0002F1300584408C
:1047E8000EFA00FE5CF8050020EA0E0004434CF8BF
:1047F8000540906840076ED4956815F0080547D1C4
:104808000C68072002F11406B94F4FEAD45CC4F3D0
:1048180004540CF0040C00FA04FE886800FA04F44E
:104828005CF8060020EA0E0020434CF806003868C1
:1048380000F07040B0F1805F00F0C580D068D668A5
:10484800C70600F1E880C6F382064869760000FAD8
:1048580006F60F69042F00F0C18002F160040868B1
:1048680054F827C000F0F8400CF0004C40EA0C0067
:10487800304344F82700487E0E69012854F8260082
:1048880008BF4FF0004520F00040054344F826508B
:104898009068C40714D4CE68086806F01807954CC9
:1048A800D2F8C050FC40C0F31307044025EA0705BE
:1048B8002C43C2F8C040904CA64246D0002816DBD4
:1048C800002003E05A6D42F020025A65002283F866
:1048D800502003B0F0BD9068DAE794FAA4F5B5FA71
:1048E80085F5C4F3846405F01F05A84069E783498A
:1048F8008A4200F0B68001F580718A4200F0B180EA
:104908007F4D804CA968A46801F0E076E44304F088
:104918000104002C00F0B4807B4CA04200F0FC8025
:104928007A4CA04200F01A81794CA042C8D14902C1
:10493800C6D474498A42C3D1AA68002022F0E07222
:10494800324342F48002AA60C0E7002F6AD090FA8E
:10495800A0F4B4FA84F4013404F01F04092C00F222
:10496800A48090FAA0F4B4FA84F490FAA0F5B5FA09
:1049780085F5013401260135A40605F01F0504F06C
:10498800F84406FA05F52C4390FAA0F0B0FA80F046
:10499800304400F01F0000EB400000052043C60D26
:1049A80002F11405C0F30450072406F0040604FAC3
:1049B80000F7745924EA07048F6807FA00F02043C7
:1049C800705108687AE7D6684869C6F382067600A7
:1049D80000FA06F63DE7022003B0F0BD106E0C6841
:1049E80000F0F840A506B0EB846F30D0506E00F0B0
:1049F800F840854226D0906E00F0F84085422BD0D2
:104A0800D06E00F0F84085427FF442AFD06E20F0BF
:104A18000040D0663CE77608486906F0080600FAC8
:104A280006F616E7800E441C04F01F06092E2DD842
:104A3800A406012004F0F844B040044306EB460005
:104A48000005ABE7506E20F000405066D3E7106ECB
:104A580020F000401066C9E7906E20F00040906694
:104A6800CEE7264C2B4D04F58074A96854F8F86CF1
:104A7800A468344301F0E076E44304F0010448E715
:104A88005A6D012042F020025A651FE706EB4600E6
:104A9800A50601241E3805F0F84504FA06F60005B7
:104AA800354340F00070284379E790FAA0F5B5FA4D
:104AB80085F590FAA0F4B4FA84F40135012601349E
:104AC800AD0604F01F0405F0F84506FA04F4254382
:104AD80090FAA0F4B4FA84F4344404F01F0404EB0C
:104AE8004404A4F11E00000540F00070DBE700BF9D
:104AF8000010005CFFFF0F000000FF47002002408D
:104B08000063025800600258000084CB000052C7BE
:104B18000000B8CF0023024008023FF5D1AE174984
:104B28008A427FF4CDAE164AA9681268154821F06A
:104B3800E07192093143A0FB020241F4000192099D
:104B4800A96052000192019A002A3FF4B9AE019A75
:104B5800013A0192019A002AF9D1B1E611F0807068
:104B68007FF4AEAE05498A427FF4AAAEAA6822F065
:104B7800E072324342F08072AA60A7E600600258F1
:104B88004C000024632D3E0503689A68D20701D5BE
:104B9800002070479968214A114270B5044608D030
:104BA800636D012043F010036365A36D0343A365A0
:104BB80070BD99681A4A0A4042F001029A60FFF7EC
:104BC8007BFD2368174A054693421ED002F5807282
:104BD80093421AD0144A9268114E0AE09A683240F9
:104BE80042F001029A60FFF767FD401B0228D7D800
:104BF80023681A68D2070FD49A68D107EED5FFF751
:104C08005BFD401B0228F3D9CAE7084A9268D00620
:104C1800E2D0074A9342DFD1002070BD3F000080F8
:104C2800C0FFFF7F002002400063025800230240BB
:104C3800002102402DE9F0413A4D044600680F4634
:104C48001646A84219D0384B984216D0374DAB6853
:104C58008068420716D494F85020012A12D003F035
:104C68001F080122B8F1090F84F850200DD900233C
:104C7800012084F85030BDE8F0812D4DAB68806884
:104C88004207E8D50220BDE8F08140F2212323FA4B
:104C980008F3DB4313EA0205E9D12046FFF774FF66
:104CA800002839D1626D234B2168134043F4807387
:104CB8006365B8F1000F02D01B4B994203D0636DB6
:104CC80023F480136365636D13F4805328D0A36DB8
:104CD80023F00603A365E06C3346174D3A4640318E
:104CE800C563164D0564164DC5641C2541F8405C26
:104CF800002584F8505051F83C5C45F0100541F807
:104D08003C5C00F059FE22680E4B91680B4043F062
:104D180004039360BDE8F08184F85050BDE8F08149
:104D2800A365D8E700200240002102400063025832
:104D380000230240FEF0FFFF0D470008014700086E
:104D480079470008C0FFFF7F38B503689A68910764
:104D580002D59B68002038BD9A68D20723D59A6887
:104D6800044602F00D02012A08D0636D012043F0C9
:104D780010036365A36D0343A36538BD98680321D9
:104D88000A4A024042F002029A601960FFF794FC56
:104D9800054604E0FFF790FC401B0228E5D823688D
:104DA8009B68DB07F6D4002038BD00BFC0FFFF7F3B
:104DB80038B5574A04460368934226D002F58072F4
:104DC800934222D0534B9B6813F4403F22D004F007
:104DD800ADF963680546B3F5003F00F08880B3F588
:104DE800403F70D0B3F5803F00F08180FFF77CFC36
:104DF80041F2030398422DD8474B9D425DD9226862
:104E0800936843F48073936038BD444B9B6813F4F4
:104E1800403FDCD14FF4002005F054FA63680546A2
:104E2800B3F5101F6DD008D8B3F5E01F55D01AD9C7
:104E3800B3F5001FDAD14509D8E7B3F5201F4AD0EA
:104E4800B3F5301FD2D1FFF74FFC41F2030398426C
:104E580033D92D0A324B9D421DD82268936823F41A
:104E68004073936038BDB3F5801F06D00AD9B3F5F7
:104E7800A01F02D0B3F5C01FB8D19B0C5B00B5FBD7
:104E8800F3F5B3E7B3F5002FF7D023F40022B2F51A
:104E9800802FF2D0AAE7234B234A2B4493421ED9F2
:104EA800224B234A2B449342226893682BD823F43D
:104EB800407343F40073936038BD2268936823F409
:104EC8008073936038BD8508FFF70EFC41F2030339
:104ED8009842BFD890E7C50988E7050986E72268A0
:104EE800936823F4407343F48073936038BD1B0CBC
:104EF800B5FBF3F5FFF7F8FB41F203039842A9D895
:104F08007AE7850972E743F44073936038BD00BFC0
:104F18000020024000630258002D310100230240A6
:104F2800105E5F00EFA1A0FF0F5E5F00DF4341FF4F
:104F38001FBCBE0030B5002383B00193002800F0E9
:104F4800D080456D0446002D00F0BA802268936831
:104F58009B0003D59168714B0B4093609368DD000B
:104F680015D46F4B90686F491B6801406E489B09C8
:104F780041F08051A0FB030391609B090193019BC1
:104F88002BB1019B013B0193019B002BF9D1936845
:104F9800D80024D4636D012543F010036365A36D25
:104FA8002B43A365936813F0040F636D1DD1D906D5
:104FB8001BD4636D23F4817343F002036365936824
:104FC800DB0728D4594B9A4217D003F580739A42CD
:104FD80013D0574B9B68D9071DD4564A15E09368E0
:104FE800002513F0040F636DE1D0636D012543F0D4
:104FF80010032846636503B030BD4C4A4E4B926897
:105008009B681343D80706D44C4A9368616823F415
:105018007C130B439360FFF767FB41F20303A1681E
:105028009842237F52D894F815C01A04206B42EA9C
:105038004C3202430A43012B03D1236A013B42EA63
:105048004342636A23B103F47873A16A0B431A439A
:1050580023683B49D86801400A43DA609A6812F02D
:10506800040F9A681CD112071AD4D868354A217DD2
:10507800024042EA8132E16A0A43DA6094F8382051
:10508800012A3AD01A6922F001021A611A692046E7
:10509800616B22F070420A431A61FFF789FE2368A8
:1050A800E268012A21D01A6B22F00F021A63636D9D
:1050B800284623F0030343F00103636503B030BDC2
:1050C800FDF778FAA56584F850503FE71029AAD172
:1050D800617D1A0442EA4132216B0A4342F01C0204
:1050E800A9E70125284603B030BD196BA26921F054
:1050F8000F01013A0A431A63D9E7D4E91021186964
:105108000A43114901400A43A16C0A43E16B42EA90
:10511800014242F001021A61B8E700BFC0FFFF5F19
:105128004C000024C0FFFF6F632D3E0500200240A5
:105138000060025800630258002102400023024028
:1051480003C0F0FFFCBFFFFF1EF800FCF0B5002312
:1051580083B0019390F85030012B40D001230446CE
:105168000E46154680F85030FFF7EEFDE8B9676D3A
:1051780005F080421B4B06F480311B4D3B401B4F12
:1051880043F00203636523689E68354015430D4369
:1051980045F000459D609A68002A0FDB636D23F097
:1051A800030343F00103636503E0636D43F01003F9
:1051B8006365002384F8503003B0F0BD019A0132D2
:1051C8000192019ABA42E6D9636D0022012023F0C8
:1051D800120384F8502043F010036365ECE70220C3
:1051E80003B0F0BDFDEEFFFFC0FFFE3FFF955A552F
:1051F800F0B490F850200E68012A49D00346294A95
:1052080001201C6883F85000944208D05A6D002190
:1052180042F0200283F850105A65F0BC7047224DC6
:10522800AA6852070AD5A2685A6D012042F02002E6
:105238005A65002283F85020F0BC7047A06810F02F
:105248000400F1D1C6B1DFF868C04F68DCF8082067
:1052580022F440423A43CCF80820A468AA682243C2
:10526800D40713D48A68DCF8081016430F4A0A409A
:105278001643CCF80860DCE70D498A6822F44042FE
:105288008A60A068AA680243D00704D50020D0E746
:105298000220F0BC70478C683046044A22408A607D
:1052A800C7E700BF0020024000210240E0F0FFFFF6
:1052B8000023024006494FF6FF0C0002054BCA685E
:1052C80000F4E06002EA0C0210430343CB6070472D
:1052D80000ED00E00000FA051B4BDB68C3F3022376
:1052E80000B5C3F1070E03F1040CBEF1040F28BF8B
:1052F8004FF0040EBCF1060F1AD9033B4FF0FF3CE8
:105308000CFA03FC22EA0C024FF0FF3C00280CFACE
:105318000EFC21EA0C0101FA03F141EA02010ADB61
:1053280009010A4BC9B2034483F800135DF804FB72
:1053380000221346E8E700F00F000901044BC9B248
:10534800034419765DF804FB00ED00E000E100E09D
:10535800FCEC00E0002807DB00F01F0101234009F6
:10536800024A8B4042F82030704700BF00E100E05D
:1053780000280DDB4309012200F01F0005492033F6
:1053880002FA00F041F82300BFF34F8FBFF36F8F8D
:10539800704700BF00E100E0431EB3F1807F0CD2EC
:1053A8004FF0E022002006494FF0F00C536107232C
:1053B80081F823C09061136170470120704700BFD6
:1053C80000ED00E0BFF35F8F044B00215A6A22F41E
:1053D80080325A62C3F89410704700BF00ED00E0B5
:1053E800064B40F00100C3F894005A6A42F4803238
:1053F8005A62BFF34F8FBFF36F8F704700ED00E025
:10540800174A4378C2F89830017821B3436800B549
:10541800C2F89C30C37A90F80CC01B0690F80FE0D5
:1054280043EA0C7390F80AC00B43817B43EACC43F0
:1054380090F80DC043EA8C4390F809C043EA414311
:10544800017A43EA0E4343EA0C2343EA4103C2F8D4
:10545800A0305DF804FBC2F89C10C2F8A010704799
:1054680000ED00E0704700BF08B5FFF7FBFF08BD7F
:105478000268344B344930B4344D354CAA4218BF15
:105488009A420CBF012300238A4208BF43F001035C
:105498003031A24208BF43F0010330348A4208BFCA
:1054A80043F001033031A24208BF43F00103303416
:1054B8008A4208BF43F0010301F55C71A24208BFAC
:1054C80043F0010304F55C748A4208BF43F001030A
:1054D8003031A24208BF43F0010330348A4208BF8A
:1054E80043F001033031A24208BF43F001033034D6
:1054F8008A4208BF43F001033031A24208BF43F09B
:1055080001038A4208BF43F0010313B9114B9A42C1
:1055180013D1D3B21049114C103BA1FB03515F2B9F
:105528000F4BC1F3021103EA0203615C88BF043325
:10553800C1658365184630BC704722F0FF03836558
:10554800F8E700BF10000240400002402800024077
:1055580058000240B8040240ABAAAAAAFC2A0108D3
:1055680000FCFFFF0368294A294930B4294D2A4C19
:10557800AB4218BF93420CBF012200228B4208BFE6
:1055880042F001022831A34208BF42F00102283448
:105598008B4208BF42F001022831A34208BF42F003
:1055A80001028B4208BF42F0010212B91B4A934222
:1055B80013D1DBB21A4C1B4A0121083B1A4DA4FB3C
:1055C8000343456602EB1312C3F30413920001FA76
:1055D80003F30266836630BC7047DAB21349144C91
:1055E8001944103AA829A4FB02234FEA131300D840
:1055F8000833104A03F01F0501210F4C1A44A94033
:105608004466920081660266E5E700BF08540258C6
:10561800305402581C5402584454025894540258A6
:10562800CDCCCCCC0096001680580258F0FBFDBFBC
:10563800ABAAAAAA008200108008024070B50446EE
:10564800FFF73AF8002C00F0C68023680546954A13
:10565800934248D01832934245D0303292498B4217
:1056680018BF934201F130010CBF012200228B4286
:1056780008BF42F0010218318B4208BF42F0010214
:1056880018318B4208BF42F0010218318B4208BF23
:1056980042F0010201F556718B4208BF42F0010247
:1056A80018318B4208BF42F0010218318B4208BF03
:1056B80042F0010218318B4208BF42F00102183152
:1056C8008B4208BF42F0010218318B4208BF42F0FA
:1056D800010218318B4208BF42F001021AB9734A1D
:1056E800934240F0F5800222002184F8352084F8A6
:1056F80034101A6822F001021A6005E0FEF7DCFF98
:10570800431B052B40D823681A68D107F6D4D4E97F
:10571800022521692A43A0691D680A4361690A4371
:10572800E16902430A4362492940256A2A430A4338
:10573800616A04292FD01A605A6922F007021143BE
:1057480059612046FFF794FEE26D3F2302F01F02E5
:10575800934083602046FFF705FFA368802B3CD069
:105768006368A06EDAB2013BD4E91851072B2A60AE
:10577800486026D90023C4E91B336367002001234E
:10578800606584F8353070BD2022032301206265EE
:1057980084F8353070BDD4E90B5129430A431A60A7
:1057A8005969A26A21F00701114341F00401002D53
:1057B800C6D000284FD1012A6ED032F00202BFD1E4
:1057C80051E0501E072810D9626FD4E91B31002020
:1057D80018604A60D2E7012070BD0023A16ED4E9A9
:1057E8001802636003605160C4E72168314B324D91
:1057F800A94218BF994205F114050CBF01230023E3
:10580800A94208BF43F001031435A94208BF43F079
:1058180001031435A94208BF43F001031435A94216
:1058280008BF43F001031435A94208BF43F0010340
:105838003BB9224B994204D0214B224913449B0087
:1058480003E0214B214913449B0001228240C4E913
:105858001B316267BBE7B0F5005F0ED0022A05D99D
:10586800032A7FF46DAFEA017FF56AAF0123402276
:105878001846626584F8353070BD032A3FF660AF7C
:1058880001A050F822F000BF755800086F580008B2
:1058980075580008A1580008B5F1C07F7FF450AFD3
:1058A800E4E700BF1000024040000240B804024094
:1058B8003F8010FE085402581C5402589454025851
:1058C8003F820010400902403F9600164059025896
:1058D800324A33483349834218BF934200F12800C3
:1058E8000CBF012200228B4208BF42F0010228317E
:1058F800834208BF42F0010228308B4208BF42F0C1
:1059080001022831834208BF42F001028B4208BFDE
:1059180042F0010212B9244A934238D102220021EE
:10592800224D84F8341084F835201A681540A2688E
:10593800402A2AD0802A0CBF4FF480400846266AA5
:10594800D4E90312D20842EAD102616942EAD102DB
:10595800A16942EAD102E16942EAD102144942EA64
:10596800161219442A4302431248A0FB010120469B
:105978001A600B099B00E365FFF77AFDE26D0123CE
:1059880002F01F0293404360E4E61020D7E740226C
:1059980003230120626584F8353070BD085402582D
:1059A8001C54025830540258945402580F00FEFFF9
:1059B800F8ABFDA7CDCCCCCC002800F0BC80844649
:1059C80090F83400012800F0B88001202DE9F0415A
:1059D8009CF835408CF83400844208D000224FF4FB
:1059E80000638CF83420CCF85430BDE8F0810220F4
:1059F800DCF800507A4C8CF835000020794ECCF851
:105A080054007948854218BFA54200F118000CBF20
:105A180001240024854208BF44F00104183085425F
:105A280008BF44F001041830854208BF44F001045F
:105A38001830854208BF44F0010400F556708542CD
:105A480008BF44F001041830854208BF44F001043F
:105A58001830854208BF44F001041830854208BF59
:105A680044F001041830854208BF44F0010418309E
:105A7800854208BF44F001041830854208BF44F04D
:105A880001041830854208BF44F00104A0F5956070
:105A9800B54218BF8542DCF86C600CBF01200020BD
:105AA80054EA0008286820F001002860DCF8640047
:105AB800DCF86840DCF85870446040D016B1DCE986
:105AC8001C044460DCF85C004FF03F0E00F01F003F
