:020000040800F2
:10000000000002205909000855090008016C000889
:1000100055090008550900085509000800000000AE
:10002000000000000000000000000000550900086A
:10003000550900080000000055090008856B0008FC
:100040005509000855090008550900085509000818
:100050005509000855090008550900085509000808
:1000600055090008550900085509000819590008E4
:100070002559000881430008315900083D590008FE
:100080008D150108494E000855090008550900085A
:1000900055090008550900085509000855090008C8
:1000A00055090008550900085509000855090008B8
:1000B000A5090108B1090108BD0901087D4E000824
:1000C00055090008894E000855090008F164000828
:1000D000FD640008C1130108ED1301082114010893
:1000E00055090008550900080000000055090008DE
:1000F0005509000855090008550900085509000868
:100100005509000855090008C909010809650008D2
:1001100055140108891401084D46000855090008C6
:1001200035460008414600082D6500086165000855
:10013000C1150108550900085509000855090008AE
:1001400000000000000000000000000000000000AF
:10015000550900085509000855090008BD14010893
:10016000954E000855090008956B0008B96B00080A
:1001700055090008DD6B00085509000855090008FD
:100180005509000855090008F11401082515010852
:100190001565000821650008550900085509000883
:1001A00055090008550900085509000855090008B7
:1001B0003956000855090008550900085509000876
:1001C0005509000855090008550900085509000897
:1001D0005509000855090008550900085509000887
:1001E0005509000855090008550900085509000877
:1001F0005509000855090008550900085509000867
:100200005509000855090008550900085509000856
:100210005509000855090008550900085509000846
:10022000550900085509000855090008000000009C
:10023000550900085509000800000000550900088C
:100240005509000855090008550900085509000816
:100250005509000855090008550900085509000806
:1002600055090008550900085509000855090008F6
:10027000550900085509000859150108000000003B
:10028000550900085509000855090008000000003C
:08029000000000005509000800
:1002980010B5054C237833B9044B13B10448AFF3B8
:1002A80000800123237010BDE80300240000000033
:1002B800E04E010808B5034B1BB103490348AFF3EF
:1002C800008008BD00000000EC030024E04E010897
:1002D80081F0004102E000BF83F0004330B54FEAEF
:1002E80041044FEA430594EA050F08BF90EA020F5C
:1002F8001FBF54EA000C55EA020C7FEA645C7FEAEF
:10030800655C00F0E2804FEA5454D4EB5555B8BF11
:100318006D420CDD2C4480EA020281EA030382EA82
:10032800000083EA010180EA020281EA0303362D14
:1003380088BF30BD11F0004F4FEA01314FF4801CE7
:100348004CEA113102D0404261EB410113F0004FF9
:100358004FEA03334CEA133302D0524263EB4303B0
:1003680094EA050F00F0A780A4F10104D5F1200E4E
:100378000DDB02FA0EFC22FA05F2801841F10001A9
:1003880003FA0EF2801843FA05F359410EE0A5F17D
:1003980020050EF1200E012A03FA0EFC28BF4CF0AE
:1003A800020C43FA05F3C01851EBE37101F0004564
:1003B80007D54FF0000EDCF1000C7EEB00006EEB71
:1003C8000101B1F5801F1BD3B1F5001F0CD34908FB
:1003D8005FEA30004FEA3C0C04F101044FEA445252
:1003E80012F5800F80F09A80BCF1004F08BF5FEAD9
:1003F800500C50F1000041EB045141EA050130BDB9
:100408005FEA4C0C404141EB0101013C28BFB1F5CA
:10041800801FE9D291F0000F04BF01460020B1FA15
:1004280081F308BF2033A3F10B03B3F120020CDAE8
:100438000C3208DD02F1140CC2F10C0201FA0CF0C6
:1004480021FA02F10CE002F11402D8BFC2F1200C2B
:1004580001FA02F120FA0CFCDCBF41EA0C019040E1
:10046800E41AA2BF01EB0451294330BD6FEA04042A
:100478001F3C1CDA0C340EDC04F11404C4F1200215
:1004880020FA04F001FA02F340EA030021FA04F327
:1004980045EA030130BDC4F10C04C4F1200220FA7E
:1004A80002F001FA04F340EA0300294630BD21FABC
:1004B80004F0294630BD94F0000F83F4801306BF82
:1004C80081F480110134013D4EE77FEA645C18BF76
:1004D8007FEA655C29D094EA050F08BF90EA020F0D
:1004E80005D054EA000C04BF1946104630BD91EA05
:1004F800030F1EBF0021002030BD5FEA545C05D108
:100508004000494128BF41F0004130BD14F5800446
:100518003CBF01F5801130BD01F0004545F0FE41BA
:1005280041F470014FF0000030BD7FEA645C1ABFEF
:10053800194610467FEA655C1CBF0B46024650EA26
:10054800013406BF52EA033591EA030F41F4002152
:1005580030BD00BF90F0000F04BF0021704730B5D8
:100568004FF4806404F132044FF000054FF00001AD
:1005780050E700BF90F0000F04BF0021704730B56E
:100588004FF4806404F1320410F0004548BF404243
:100598004FF000013EE700BF42004FEAE2014FEA98
:1005A80031014FEA02701FBF12F07F4393F07F4F73
:1005B80081F06051704732F07F4208BF704793F076
:1005C8007F4F04BF41F40021704730B54FF4607489
:1005D80001F0004521F000411CE700BF50EA01028C
:1005E80008BF704730B54FF000050AE050EA010235
:1005F80008BF704730B511F0004502D5404261EBA5
:1006080041014FF4806404F132045FEA915C3FF4E5
:10061800D8AE4FF003025FEADC0C18BF03325FEA82
:10062800DC0C18BF033202EBDC02C2F1200300FA33
:1006380003FC20FA02F001FA03FE40EA0E0021FA58
:1006480002F11444BDE600BF53B94AB9002908BFF6
:1006580000281CBF4FF0FF314FF0FF3000F074B995
:10066800ADF1080C6DE904CE00F006F8DDF804E001
:10067800DDE9022304B070472DE9F047089D0446E0
:100688008E46002B4DD18A42944669D9B2FA82F23D
:1006980052B101FA02F3C2F1200120FA01F10CFA79
:1006A80002FC41EA030E94404FEA1C48210CBEFBB1
:1006B800F8F61FFA8CF708FB16E341EA034306FB3A
:1006C80007F199420AD91CEB030306F1FF3080F0C9
:1006D8001F81994240F21C81023E63445B1AA4B216
:1006E800B3FBF8F008FB103344EA034400FB07F7B8
:1006F800A7420AD91CEB040400F1FF3380F00A81F9
:10070800A74240F207816444023840EA0640E41BED
:1007180000261DB1D4400023C5E900433146BDE899
:10072800F0878B4209D9002D00F0EF800026C5E93B
:10073800000130463146BDE8F087B3FA83F6002E53
:100748004AD18B4202D3824200F2F980841A61EBCB
:10075800030301209E46002DE0D0C5E9004EDDE7E9
:1007680002B9FFDEB2FA82F2002A40F09280A1EBD1
:100778000C014FEA1C471FFA8CFE0126200CB1FB26
:10078800F7F307FB131140EA01410EFB03F088421F
:1007980008D91CEB010103F1FF3802D2884200F2AC
:1007A800CB804346091AA4B2B1FBF7F007FB10113E
:1007B80044EA01440EFB00FEA64508D91CEB0404DC
:1007C80000F1FF3102D2A64500F2BB800846A4EB37
:1007D8000E0440EA03409CE7C6F12007B34022FA22
:1007E80007FC4CEA030C20FA07F401FA06F31C4351
:1007F800F9404FEA1C4900FA06F3B1FBF9F8200C5E
:100808001FFA8CFE09FB181140EA014108FB0EF0A3
:10081800884202FA06F20BD91CEB010108F1FF3AF3
:1008280080F08880884240F28580A8F102086144FF
:10083800091AA4B2B1FBF9F009FB101144EA01410D
:1008480000FB0EFE8E4508D91CEB010100F1FF34B8
:100858006CD28E456AD90238614440EA0840A0FB50
:100868000294A1EB0E01A142C846A64656D353D026
:100878005DB1B3EB080261EB0E0101FA07F722FA4A
:1008880006F3F1401F43C5E9007100263146BDE873
:10089800F087C2F12003D8400CFA02FC21FA03F3D6
:1008A800914001434FEA1C471FFA8CFEB3FBF7F057
:1008B80007FB10360B0C43EA064300FB0EF69E427C
:1008C80004FA02F408D91CEB030300F1FF382FD215
:1008D8009E422DD9023863449B1B89B2B3FBF7F6BD
:1008E80007FB163341EA034106FB0EF38B4208D996
:1008F8001CEB010106F1FF3816D28B4214D9023ED7
:100908006144C91A46EA004638E72E46284605E7F4
:100918000646E3E61846F8E64B45A9D2B9EB0208C5
:1009280064EB0C0E0138A3E74646EAE7204694E755
:100938004046D1E7D0467BE7023B614432E7304688
:1009480009E76444023842E7704700BFFEE700BF8A
:100958000B480C4A904203D0121A0B4913F0EEF8D8
:100968000A480B4A904203D0121A002113F0F4F8F7
:1009780006F09CFB13F0B6F801F0B8FBFEE700BFE9
:1009880000000024E8030024104F0108E8030024B5
:1009980048380024704700BF704700BF704700BF49
:1009A800704700BF704700BF704700BF49424FF40F
:1009B80080621430C9B213F0CFB800BF704700BFCF
:1009C8004020704780207047704700BF10B504462C
:1009D80040F2144112F0D7FD204610BD2DE9F04F2A
:1009E80081466F48884692466E4C6F4D6F4E2DED8E
:1009F800048B87B003F05AF96D48F0EE408A03F093
:100A080055F96C48B0EE408A03F050F96A48B0EEE8
:100A1800409A03F04BF9DFED695A694B28EEA55A65
:100A280068EE255A83ED000ABDEEC57AFDEEE57A3B
:100A380017EE107AB8EEC76A17EE903AF8EEE76A42
:100A4800A74235EE465A28BF2746A34275EEE65A16
:100A580028BF234685ED005AAF60C6ED005AB36043
:100A6800BAF1000F00F097800AF1FF3A1C4672684D
:100A78004FEA5A034FF0000A01936B68CDF800A0C3
:100A8800CA461946C14605E0B468D6ED005AAF68B3
:100A980095ED005ADFF82CB10F44144409F1080908
:100AA80007F1010EABFB073004F1010CABFB04327C
:100AB800800C0AF1080A930CABFB0E21ABFB0C82ED
:100AC800DFF80481890C920C08FB134408FB11E140
:100AD80008FB12C206EB840408FB107005EB8101C9
:100AE80006EB8202D4ED037A05EB800091ED036AF0
:100AF800D2ED036A04A990ED037A02AA76EEE76ABA
:100B08005AF8080C36EE476A0490E6EEA57A5AF8C9
:100B1800040CA6EE057A05902948CDED037A8DEDF3
:100B2800027A12F0C1FCDDED027A03AADDED048A37
:100B380005A92348B0EE408AE7EE898A12F0B4FC92
:100B48009DED037ADDED057A6A681648E7EE097AC5
:100B5800716805EB82040244084406EB8101ABFB93
:100B68000237C4ED038AC1ED037AB90CABFB00343C
:100B7800009B08FB1121A20C019C696008FB120272
:100B8800A34203F101037260009309ED028A09EDA3
:100B9800010A7FF479AF07B0BDEC048BBDE8F08F94
:100BA8004C040024FFA50E000C983AC0000000C0B9
:100BB8006C0400248C040024AC04002400606A49FE
:100BC8000404002473B2E74500A60E002DE9F041A5
:100BD800B02482B000F1080600F1100500F11408F5
:100BE800002728468DF807400134394603F0D4FF22
:100BF800642301220DF107013046E4B205F0DAFE64
:100C0800394628468DF8077003F0C6FF0122642391
:100C18000DF10701304605F0CDFE10233946284670
:100C28008DF8073003F0B8FF642301220DF10701A6
:100C3800304605F0BFFE0121284603F0ADFF8022B3
:100C4800414664233046904405F0B4FEB82CC7D121
:100C580002B0BDE8F08100BF2DE9F04F89B008ACC3
:100C68009DF84870019104E90C000B78002B00F006
:100C7800AB801A469DF818809DF8193006464546FF
:100C880090460393079B0593A8F12004E3B25E2BDB
:100C980000F29E8033685E4ADB68934240F09B8096
:100CA8008020B3882B44834200F392803368594AEA
:100CB8009B68934240F092804020F188039A029109
:100CC8008B18834200F38480002A00F0918002FB95
:100CD80004F46FF00049059BA1441444B6F804B02D
:100CE80003EB4909023BCDF8108003EB44030C46A3
:100CF8009A4639F802CFA5B304F007034FF0010E66
:100D0800E20859460EFA03FE0BF114034FFA8EFE61
:100D180003EBC21200236FEA0E0832440DE07F296C
:100D280006D83F2C04D8107897B14EEA000010700E
:100D3800013301320131AB4213D00CFA03F0000445
:100D4800EDD47F29F4D83F2CF2D81078002FECD0BE
:100D5800013308EA000001320131AB4202F8010C0C
:100D6800EBD1D14504F10104C3D1DDF8108032681C
:100D78000BEB05042649D368A4B28B4234D18020FA
:100D8800844204D3D36822498B423AD17F249368A2
:100D9800204AB480934224D14020029B834206D348
:100DA80033681C4A9B68934225D13F230293029BD8
:100DB800F380019B1878404507D113F8018F019300
:100DC800B8F1000F7FF460AF002009B0BDE8F08FE4
:100DD8004FF00008EDE73046984762E730469847FD
:100DE8006BE730469847D8E7304698473268C7E7F8
:100DF800B6F804B0BBE730469847013883B202938F
:100E0800D5E7304698470138326884B2BFE700BF5B
:100E1800CD090008C90900087F291ED83F2A1CD817
:100E28006BB1D3084FF0010C02F0070201EBC313BA
:100E38000CFA02F2C1180B7D1A430A757047D308E1
:100E48004FF0010C02F0070201EBC3130CFA02FC8D
:100E5800C1180A7D22EA0C020A7570472DE9F04F85
:100E680083B05C1A0C9E002C9DF83490A6EB020807
:100E7800B8BF6442B8F1000FB8BFC8F100088B4290
:100E88008CBF4FF0010A4FF0FF3A9642A4EB080CD2
:100E980051D84FF0FF357F2B019512D83F2E10D82F
:100EA800F50806F0070E012703EBC5150544B9F14F
:100EB800000F47D007FA0EF795F814E047EA0E0737
:100EC8002F75964201D18B4229D0C8F100077F299E
:100ED80014D83F2A12D8D50802F0070B4FF0010E9C
:100EE80001EBC5150544B9F1000F1BD00EFA0BFE36
:100EF80095F814B04EEA0B0E85F814E0B7EB4C0FDA
:100F08004FEA4C0502DAACEB080C5144AC4202DD66
:100F1800019DA4442A449942D9D19642D7D103B01D
:100F2800BDE8F08F0EFA0BFB95F814E02EEA0B0ED5
:100F380085F814E0E2E701257F2B0195C5D83F2EFF
:100F4800AED9C2E707FA0EFE2F7D964227EA0E07B2
:100F58002F75B8D0B9E700BF2DE9F04F2DED068BFE
:100F680083B01F4680460D469DF8503016460193C3
:100F7800139B002BC0F22182129A134406EE103AFA
:100F8800DDED127AB8EEC66B9FEDCD4BB8EEE77B80
:100F98009FEDCD5B27EE047B26EE046B87EE050BF9
:100FA80086EE05ABF7EEC08BB0EE680A12F0F0FAE9
:100FB80007EE907AB7EECAABF8EE679AB0EE408AC1
:100FC800B0EE680A12F074FC60EE698AB0EE4A0A64
:100FD80012F0DEFAB0EE409AB0EE4A0A12F068FC5F
:100FE80020EE690A29EE888A29EE899A70EE687AD5
:100FF800F0EE006A39EE487A67EEA77AE7EE077AEC
:10100800F4EEE67AF1EE10FA06D5139BB42B40F312
:1010180096804FF0010901E04FF000090124784261
:101028004FF0000C0095E31B214627462246A340BB
:10103800B9F1000F6AD1424206EE90CACCF1000124
:1010480007EE102AB8EEE66A07EE901A06EE900A46
:10105800B8EEC77A139A66EE084AF8EEE77AB42A29
:1010680027EE284AF8EEE66A67EE885A74EEC43A24
:1010780026EEA85A26EE096A66EE806A67EE897A35
:1010880027EE007AF5EEC03A40F3F280F1EE10FA5E
:1010980000F17F8176EE473A74EEC54AF5EEC03A24
:1010A800F1EE10FAF5EEC04ACCBF01220022F1EEB3
:1010B80010FA00F1778136EE666A35EEC55AB5EE5C
:1010C800C06AF1EE10FAB5EEC05ACCBF012100217A
:1010D800F1EE10FA00F16F8177EEE66AF5EEC06A7C
:1010E800F1EE10FACCBF0127002775EEC45AF5EED1
:1010F800C05AF1EE10FA00F1478177EEC77AF5EEA3
:10110800C07AF1EE10FACCBF01240024002A40F086
:101118008A80002964D1BFB9C4BB9C4558DB0CF157
:10112800010C03EB4C0E1CEB000F0EF1010E00F04E
:10113800C08098424FDB734600287FF779AF03B031
:10114800BDEC068BBDE8F08F009DA6EB0C0E00EB06
:10115800050ABAF17F0FDFD8BEF13F0FDCD84FEA9E
:10116800DE0B019D0AEBCB1A002D00F0B1800EF0CA
:10117800070BC2444FF0010E0EFA0BFE9AF814B09A
:101188004EEA0B0E8AF814E0002CC6D0009DA6EBA0
:101198000C0EA5EB000ABAF17F0FBED8BEF13F0FC7
:1011A800BBD84FEADE0B019D0AEBCB1A002D00F0ED
:1011B800AE800EF0070BC2444FF0010E9C450EFAAC
:1011C8000BFE9AF814B04EEA0B0E8AF814E0A6DA71
:1011D80098429E46AFDA01300EEB40030133ABE78D
:1011E800009D0CEB060E00EB050ABAF17F0F92D8B2
:1011F800BEF13F0F8FD84FEADE0B019D0AEBCB1AE9
:10120800002D73D00EF0070BC2444FF0010E0EFAFA
:101218000BFE9AF814B04EEA0B0E8AF814E0002F71
:101228003FF47AAF90E7009D0CEB060EA5EB000AA1
:10123800BAF17F0F3FF66DAFBEF13F0F3FF669AFD2
:101248004FEADE0B019D0AEBCB1A002D6DD00EF094
:10125800070BC2444FF0010E0EFA0BFE9AF814B0B9
:101268004EEA0B0E8AF814E000293FF454AFB7E7B2
:10127800F1EE10FA7ED44A4674EEC54AF5EEC04A3D
:10128800F1EE10FA6CD4002135EEC55AB5EEC05A0D
:10129800F1EE10FA5AD4002775EEC45AF5EEC05A8A
:1012A800F1EE10FA3FF529AF0024002A3FF431AFE0
:1012B800B9E798428FDB00233BE700BFAFF300801C
:1012C8007A008BFCFA21094000000000008066408B
:1012D800C2444FF0010B0EF0070E0BFA0EFE9AF8FF
:1012E80014B02BEA0E0E8AF814E015E7C2444FF04A
:1012F800010B0EF0070E0BFA0EFE9AF814B02BEA4B
:101308000E0E8AF814E0002F3FF406AF1CE7C24423
:101318004FF0010B0EF0070E0BFA0EFE9AF814B000
:101328002BEA0E0E8AF814E0F7E6C2444FF0010BE0
:101338000EF0070E0BFA0EFE9AF814B02BEA0E0EFA
:101348008AF814E000293FF4E6AE49E777EEE66A4A
:10135800F5EEC06AF1EE10FACCBF012700279BE733
:1013680036EE666AB5EEC06AF1EE10FACCBF01211E
:10137800002189E776EE473AF5EEC03AF1EE10FA29
:10138800CCBF0122002277E70124002A3FF4C1AE36
:1013980049E774EEC54A0122F5EEC04AF1EE10FAAB
:1013A8007FF589AE35EEC55A0121B5EEC05AF1EE8A
:1013B80010FA7FF591AE012797E6DDE91223134471
:1013C80006EE102A1293139B5B421393D8E500BFD5
:1013D8002DE9F04F89B01D46884606901046129CAC
:1013E80010F8013B13999DF85060009233B1002228
:1013F80010F8013B0132002BFAD193B22A786878B1
:1014080012FB03F302B21BB223EAE373082900F2CA
:10141800A981DFE811F00201140120013401420121
:101428005001670171010900A18827880F44B4F9A8
:101438000610FF1A0029BFB2C0F2FF80B4F802C03C
:1014480006980CEB6104C280A4EB520283800780EB
:1014580094B24480A64AD8F8003011460192DA685E
:101468008A4240F08D818020B84205D8DA68019917
:101478008A4240F09A817F279E4A9B68A8F80470A8
:101488009342039240F089814020A04207D8D8F8BF
:101498000030039A9B68934240F082813F24009B6E
:1014A800A8F8064093F800B06B782C7804936B6822
:1014B8000793BBF1000F00F0AC80ABF12005EBB255
:1014C8005E2B00F22E81D8F80030019ADB68934237
:1014D80040F02A818020B8F8043023449842C0F2B2
:1014E8002081D8F80030039A9B68934240F01F810E
:1014F8004020B8F80610049A02918B189842C0F25E
:101508001081002A00F01E8102FB05F56FF0004EE5
:10151800079BAE441544CDF814B003EB4E0E023BC6
:10152800B8F804A003EB45030D469B463EF8027F3E
:10153800A4B305F007034FF0010CEA0851460CFA72
:1015480003FC0AF114034FFA8CFC03EBC2120023CC
:101558006FEA0C0942440DE07F2906D83F2D04D8D4
:10156800107896B14CEA0000107001330132013155
:101578009C4213D007FA03F00004EDD47F29F4D875
:101588003F2DF2D81078002EECD0013309EA000084
:10159800013201319C4202F8010CEBD1F34505F10F
:1015A8000105C3D1DDF814B0D8F800200AEB040512
:1015B8000199D368ADB28B4240F0BF80802085424C
:1015C80005D3D36801998B4240F0C5807F25936885
:1015D800039AA8F80450934240F0AC804020029B44
:1015E800834208D3D8F80030039A9B68934240F0AE
:1015F800AC803F230293029BA8F80630009A137828
:101608005B4506D112F801BF0092BBF1000F7FF4D1
:1016180054AF069809B0BDE8F08FB4F904102788D4
:101628000029B8BF013107EB6107B4F90610A7EB31
:1016380063070029BFB2BFF601AF0131FEE6B4F976
:1016480000700699B4F902400F80BFB24C80A4B272
:101658008B80CA80FEE6B4F9041027880029B4F903
:101668000240B8BF013107EB610706998B80A7EBF1
:1016780063034C80A4B29FB2CA800F80EAE6A188B7
:101688002788B4F902400F4406998B80FB1A4C80D6
:10169800A4B29FB2CA800F80DCE6E788618839442B
:1016A800B4F90070081A069984B20F808B80BFB213
:1016B800CA804C80CEE6B4F9041027880029B8BF48
:1016C800013107EB6107A7EB6307B4F802C0BFB2AB
:1016D800E488069964448B80201ACA800F8084B2FB
:1016E8004C80B7E62788A1880F44FF1AEDE700BFB2
:1016F800CD090008C9090008B4F90610B4F802C0F9
:101708000029B4F900700698B8BF0131C2800CEB0B
:10171800610407808380BFB2A4EB520294B2448074
:1017280098E64FF0000B69E740469847D3E64046F5
:101738009847DEE64046984751E740469847D8F82C
:1017480000203CE7B8F804A02EE740469847013847
:1017580083B202934FE7404698470138D8F80020F3
:1017680085B234E7D8F800300024069A124914806C
:1017780054809480D480DA6801918A4205D0274643
:1017880040469047D8F800306EE69B680B4AA8F8A8
:101798000440934203923FF482AE4046984774E671
:1017A80040469847013884B279E640469047013868
:1017B800D8F8003087B25FE6CD090008C9090008EB
:1017C8002DE9F04F85B0A1F1200504AC9DF83870E3
:1017D800009104E90C00EBB25E2B00F295800368DF
:1017E80080465D4ADB689DF8084093429DF8096091
:1017F80040F094808020B8F804302344834200F3FA
:101808008380D8F80030554A9B68934240F088801E
:101818004020B8F8062093190192834274DC002E08
:1018280000F0898006FB05F56FF00040039B9646A3
:1018380028442E44B8F804A003EB4000023B03EB15
:10184800460B30F8026FBCB30EF007034FF0010CE3
:101858004FEADE0251460CFA03FC0AF114034FFA70
:101868008CFC03EBC21200236FEA0C0942440EE021
:101878007F2907D8BEF13F0F04D815789FB14CEAED
:10188800050515700133013201319C4214D006FA66
:1018980003F52D04ECD47F29F4D8BEF13F0FF1D81D
:1018A8001578002FEBD0013309EA05050132013123
:1018B8009C4202F8015CEAD158450EF1010EC0D1F4
:1018C800D8F8003054442449DA68A4B28A422DD1A9
:1018D800802084421CD29B68204AA8F80440934286
:1018E80021D14020019B834207D3D8F800301B4AFE
:1018F8009B68934229D13F230193DDE90003A8F8AF
:10190800063005B0BDE8F08F002005B0BDE8F08FC7
:10191800DA6811498A4211D17F24DCE798476AE7DF
:101928004046984775E740469847DBE7404690476A
:10193800D8F80030CDE7B8F804A0C1E74046904792
:101948000138D8F8003084B2C5E7404698470138D6
:1019580083B20193D1E700BFCD090008C909000887
:101968002DE9F04F87B09DF84850109C2E46019500
:101978009DF844509EB399422ED89946A24228D841
:101988007F29164694BF0023012308E09CF81480A1
:101998004EEA080E8CF814E00136B44219D33F2EF3
:1019A800FAD8002BF8D14FEAD60C06F0070E4FF004
:1019B800010801EBCC1C08FA0EFE8444002DE5D189
:1019C8009CF814B001362BEA0E0AB4428CF814A025
:1019D800E5D201318945D1D207B0BDE8F08FA3EB3C
:1019E8000108B8F1000FB8BFC8F100089942C0F06B
:1019F8004E817F2B4FF0FF3A94BF002601263F2AE5
:101A0800009694BF002701270297A6B99FB9D60868
:101A180002F0070C012703EBC6160644002D00F060
:101A2800948107FA0CF796F814C047EA0C07377543
:101A3800002602960096994200F097814646944601
:101A48008E46BEF17F0F16D8BCF13F0F13D84FEA70
:101A5800DC070CF0070B4FF001090EEBC717074422
:101A6800002D00F0398109FA0BF997F814B049EA0A
:101A78000B0987F81490770018BFD644B84502DDE3
:101A880046440CF1FF3C7345DBD16245D9D10026B1
:101A98000496A4EB0209009FB9F1000FB8BFC9F181
:101AA80000093F2C94BF00260126A242C9F1000874
:101AB8000396C0F02381002F40F05081002E40F0A3
:101AC8004D814FF0FF360096E60803EBC616064434
:101AD800002D00F01E814FF0010C04F007070CFAEE
:101AE80007F796F814C047EA0C07377500260396DF
:101AF800A24200F03D81C44616461F4605927F2F3C
:101B080015D83F2E13D84FEAD60E06F0070B4FF024
:101B1800010A07EBCE1E8644002D00F0E6800AFA83
:101B28000BFA9EF814B04AEA0B0A8EF814A0B8EB28
:101B38004C0F4FEA4C0E02DAACEB090C013FBEF138
:101B4800000F01D0009A1644BB42D8D1B442D6D176
:101B5800059AA1EB030EBEF1000FB8BFCEF1000E3F
:101B68007F2994BF4FF0000A4FF0010A99428CBFB9
:101B78004FF001094FF0FF39BAF1000F13D1039E5E
:101B88008EB9E60801EBC6160644002D00F0D38096
:101B98004FF0010C04F007070CFA07F796F814C089
:101BA80047EA0C073775049E26BB774626467F2BE7
:101BB80014D83F2E12D84FEAD60C06F0070B4FF078
:101BC800010803EBCC1C8444002D73D008FA0BF8F1
:101BD8009CF814B048EA0B088CF814805FEA470CAC
:101BE80018BF4B44E64501DD7744013E9942DED1FA
:101BF800B442DCD1A2EB040EBEF1000FB8BFCEF1A7
:101C0800000EA2428CBF4FF001084FF0FF38CEF112
:101C1800000CBAF1000F0ED1029B63B9D30802F091
:101C28000707012601EBC3130344002D7CD0BE40F7
:101C38001F7D3E431E75019B002B7FF4CDAE66468B
:101C48000B467F2B12D83F2C10D8E70804F0070A60
:101C58004FF0010903EBC7170744A5B309FA0AF9BE
:101C680097F814A049EA0A0987F81490BCEB460FC4
:101C78004FEA460702DAA6EB0E06013B07B14444D9
:101C88009942DED1A242DCD107B0BDE8F08F3F2AED
:101C98004FF0010A94BF002601267F2B029694BFBD
:101CA800002701270097002E7FF4C8AE002F3FF4CD
:101CB800AEAEC3E608FA0BFB9CF8148028EA0B08C2
:101CC8008CF814808AE709FA0AFA97F8149029EA36
:101CD8000A0987F81490C9E709FA0BFB97F81490DA
:101CE80029EA0B0987F81490C5E60AFA0BFB9EF857
:101CF80014A02AEA0B0A8EF814A018E797BB8EBB2B
:101D080001260096E60803EBC6160644002D7FF46C
:101D1800E2AE012704F0070C039507FA0CFC377DA7
:101D280027EA0C073775E3E606FA07F71E7D26EA69
:101D380007061E757FE7012704F0070C07FA0CFC5D
:101D4800377D27EA0C0737752DE707FA0CFC377D36
:101D5800029527EA0C07009537756CE64FF0FF36B9
:101D68000096C5E601260096C5E60126049690E68B
:101D780001260196EDE600BF84B02DE9F04182B05E
:101D88000125064604460DF124088572274688E891
:101D98000E00BDF84C3026F8083F304602F012FE1F
:101DA800BDF84E30A57127F8043F384602F00AFE08
:101DB8004146204604F076FD0021384602F0ECFE4C
:101DC8000A2004F08BFF2946384602F0E5FE0A2077
:101DD80004F084FFAE23304600218DF8073002F06E
:101DE800DBFE2A460DF107016423204604F0E2FDDC
:101DF800D523304600218DF8073002F0CDFE2A4663
:101E08000DF107016423204604F0D4FD80233046F9
:101E180000218DF8073002F0BFFE2A460DF10701B8
:101E28006423204604F0C6FDA823304600218DF81F
:101E3800073002F0B1FE2A460DF10701642320465F
:101E480004F0B8FD3F23304600218DF8073002F03A
:101E5800A3FE2A460DF107016423204604F0AAFDDB
:101E6800DA23304600218DF8073002F095FE2A4625
:101E78000DF107016423204604F09CFD122330462F
:101E880000218DF8073002F087FE2A460DF1070180
:101E98006423204604F08EFD0021D32330460F46EC
:101EA8008DF8073002F078FE2A4664230DF1070109
:101EB800204604F07FFD394630468DF8077002F061
:101EC8006BFE2A460DF107016423204604F072FDDB
:101ED8004023394630468DF8073002F05DFE2A4629
:101EE8000DF107016423204604F064FDA62339465A
:101EF80030468DF8073002F04FFE2A460DF10701F3
:101F08006423204604F056FDA423394630468DF854
:101F1800073002F041FE2A460DF1070164232046EE
:101F280004F048FD8D23394630468DF8073002F01D
:101F380033FE2A460DF107016423204604F03AFDDA
:101F48001423394630468DF8073002F025FE2A461C
:101F58000DF107016423204604F02CFDA123394626
:101F680030468DF8073002F017FE2A460DF10701BA
:101F78006423204604F01EFDC823394630468DF8F8
:101F8800073002F009FE2A460DF1070164232046B6
:101F980004F010FD8123394630468DF8073002F0F1
:101FA800FBFD2A460DF107016423204604F002FDDB
:101FB8008F23394630468DF8073002F0EDFD2A466A
:101FC8000DF107016423204604F0F4FCD9233946B7
:101FD80030468DF8073002F0DFFD2A460DF1070183
:101FE8006423204604F0E6FC2523394630468DF864
:101FF800073002F0D1FD2A460DF10701642320467F
:1020080004F0D8FCDB23394630468DF8073002F05F
:10201800C3FD2A460DF107016423204604F0CAFCDB
:102028003423394630468DF8073002F0B5FD2A468C
:102038000DF107016423204604F0BCFCAF233946A8
:1020480030468DF8073002F0A7FD64232A460DF1CB
:102058000701204604F0AEFC02B0BDE8F04104B030
:10206800704700BF2DE9F041B02482B0054600F169
:10207800080600F10C08002730468DF807400134A7
:10208800394602F089FD642301220DF10701284633
:10209800E4B204F08FFC394630468DF8077002F040
:1020A8007BFD012264230DF10701284604F082FC20
:1020B8001023394630468DF8073002F06DFD642351
:1020C80001220DF10701284604F074FC0121304675
:1020D80002F062FD8022414664232846904404F0C1
:1020E80069FCB82CC7D102B0BDE8F0812DE9F04FEA
:1020F8004FF00009B4484FF0010BDFF844A3B34D8B
:10210800B34CB44EDFF83C832DED028BB1B000F038
:10211800EFFA4946AC4800F0FFFB0421AA4800F05A
:1021280003FB1021A84800F01FFBA74800F018FB8C
:1021380040F606330920B0EE408A1393A64B149359
:1021480000F0D8FAADF87400484600F0D3FA02233C
:102158000DF14C0ECDF85CB0ADF876000DF1780CB1
:10216800CDE91B330B23ADF84E300823189321AB70
:10217800CDE91999CDE915991F46BEE80F00ACE8DD
:102188000F00BEE80F00ACE80F009EE807008CE8DF
:1021980007000FCF09976F46BC46ACE80F00099FB0
:1021A800CDF820C097E80F008CE80F008B4B1EAAD3
:1021B8001F4603F108000ECAFFF7DEFD4FF48062E8
:1021C800FF2107F1140011F0C7FC854BCDF80090F2
:1021D80038468449C7F804900CCBFEF73DFD07F15B
:1021E80008004FF00207FFF73DFF8DF849901EA841
:1021F8008DF848700222129901F030FE4FF0030367
:102208008DF844900DF18A008DF84530022211991D
:1022180001F024FE8DF840B08DF841B027A8109940
:10222800022201F01BFE07238DF83C900DF1AE0051
:102238008DF83D3002220F9901F010FE04231EA9EB
:1022480069481A4601F01EFE674802F029F8494617
:10225800654802F03BF8B0EE480A4B465A4601463C
:10226800DFED620A624801F0EFFC59465E4802F071
:102278002DF8B0EE480A4B465A460146DFED5B0A98
:102288005C4801F0E1FC0221574802F01FF8B0EE6B
:10229800480A4B465A460146DFED540A564801F0B3
:1022A800D3FC0321504802F011F8DFED500AB0EEDC
:1022B800480A5A4601464B46504801F0C5FC0223DD
:1022C8001EA94F481F93CDF88090CDE921B902F09F
:1022D800C7F94A4649464A4802F040FA4A4659462A
:1022E800474802F03BFA474B5A465046196801F0F6
:1022F80001FD454B5A464548196801F0FBFC4FF073
:1023080009038DF878B028468DF879301E999FED2D
:10231800400A01F05BFD4FF008028DF838B0204606
:102328008DF839200E999FED3A0A01F04FFD0E23E2
:102338008DF834B04A468DF835300D999FED340A42
:10234800344801F0E9FC0F238DF830B04A468DF887
:1023580031300C999FED2E0A2F4801F0DDFC4FF02B
:1023680008028DF82C708DF82D204A460B999FEDA8
:10237800280A2A4801F0D0FC4FF009038DF828708C
:102388004A468DF829309FED220A0A99244801F01F
:10239800C3FC4946234A244811F0DEFB234B494637
:1023A800204A2348C3E9019B11F0D6FB214B4FF08B
:1023B8007C5221490448C3E9019B204B1A6083F8E9
:1023C800049000F0ADF94BE00C04002480090024CF
:1023D80090090024A10900240105060AFC04002430
:1023E80084010024583C0108240400240AD7233C13
:1023F8004C0400246C0400248C040024AC04002445
:102408002C040024A03C0108A43C0108CC040024AE
:1024180000007A44100900242C09002448090024EB
:102428006409002400983A0018983AC00C983AC0F9
:102438000C0000C0000000C0E509000804040024E6
:10244800E4040024A00900244E4801F09BFC4E48F7
:1024580001F098FC4D4801F095FC4D4801F092FCC4
:102468004C4801F0CDFC4C4801F0CAFC2B7913B163
:10247800AB7A7F2B39D0237913B1A37A7F2B45D040
:102488003378002BE0D09AF8163044484BB302F06A
:1024980083FA80F001005FFA80F998F80030B9F10A
:1024A800000F0ED1002BCFD09FED3D0A354801F02B
:1024B80057FC9FED3B0A344801F052FC88F8009025
:1024C800C2E7002BC0D1B7EE000A2E4801F048FC45
:1024D800B7EE000A2C4801F043FC012388F80030CD
:1024E800B2E702F059FA8146D7E7337883F001035F
:1024F8003370002B3BD09FED2A0A224801F030FCB4
:102508009FED270A204801F02BFCB4E7254A136801
:102518000133032B13600CDD002313609FED220AA7
:102528001A4801F01DFC9FED200A194801F018FC1B
:10253800A6E7032BA4D801A252F823F0252500080A
:10254800712500086B250008552500089FED160A1F
:102558000E4801F005FCB6EE000A0D4801F000FC3B
:102568008EE7B6EE000AF3E7B6EE000AD8E79FED6D
:102578000E0A044801F0F4FB9FED0B0A024801F033
:10258800EFFB78E7100900242C09002448090024EF
:10259800640900248009002490090024E40400242C
:1025A800CDCCCC3EA40900240000000070B535480D
:1025B8000025354C4FF60B763449224605604561B7
:1025C8000562C56310F0DAFF22463149314810F040
:1025D800D5FF22462E49304810F0D0FF22462C491C
:1025E8002E4810F0CBFF224629492D4810F0C6FF8F
:1025F8002C4822462C49C0E90065C0E9025510F074
:10260800BDFF2A48224628490660C560284EC0E911
:10261800015510F0B3FF22462649274810F0AEFFB7
:1026280022462449254810F0A9FF2246214924487A
:1026380010F0A4FF22461F49224810F09FFF2246AF
:102648002149224810F09AFF22462149214810F0DA
:1026580095FF22461E49204810F090FF2246314639
:102668001E4810F08BFF224631461D4810F086FFA9
:102678001C481D4B224685601C490360BDE870401C
:1026880010F07CBF0C04002400000024AD090008F1
:10269800A10900084C0400246C0400248C040024C4
:1026A800AC040024E4040024A5090008CC04002498
:1026B800D1090008A9090008100900242C090024E0
:1026C8004809002464090024B1090008040400240E
:1026D8009D09000880090024900900240C983AC03C
:1026E800000000C0FC0400246C3C0108C509000877
:1026F800704700BF202882B009D8084B03EB40027E
:1027080013F81030507843EA002002B070470123D4
:102718000C2043EA002002B0704700BFA83C010823
:10272800143001F069BA00BF38B500F11405044649
:102738002DED028B284601F01BFA284601F014FA09
:102748002846B0EE408A01F0FDF9D0ED007AF8EEA7
:10275800677A88EE277ABDEC028B84ED0E7A38BD55
:10276800143001F001BA00BF38B500F11405044671
:102778002DED028B284601F0E9F9284601F0F4F91D
:102788002846B0EE408A01F0DDF9D0ED007AF8EE87
:10279800677A88EE277ABDEC028B84ED0E7A38BD15
:1027A80010B540F203338EB000244FF60B7240F29E
:1027B8000341ADF8083009A80123ADF81020ADF8A1
:1027C80024202246ADF80C100094029907940C942A
:1027D800CDE90544CDE90A4401F0F8FF04A8012336
:1027E80022460399009401F0F1FF09A802F0D4F8F9
:1027F80010B901200EB010BD04A802F0CDF8A04217
:102808000CBF022020460EB010BD00BF2DE9F041DC
:1028180003239AB0012700240646CDE914373B4B21
:10282800CDE9104340F20453CDE91647ADF84830DE
:10283800FFF7B6FFB842054625D0022845D040F636
:102848000132334B0DF12C081894ADF82C200B985D
:102858001997CDF84A3000F0E3F810A906F13C00CA
:1028680003F0E2F8302003224FF07E5341460D93E7
:102878000E93CDE90B02F26B06F1140001F02AF970
:102888001AB0BDE8F0811023214A06A906908DF8F8
:1028980028300DF12C081F4BCDF84A2007930294DD
:1028A800CDE91804CDE9080402A802F0F5FA0823D6
:1028B800029A03A94046ADF80C508DF80E400495D5
:1028C80005930B9400F0ECF8C7E700200121104BAA
:1028D8000DF12C083A460094CDF84A304FF60B73A8
:1028E8000C94ADF82C302346CDE9180140F601319F
:1028F8004046ADF818100699CDE90D4401F066FF81
:102908002146404602F054F8A7E700BF0402040439
:10291800040604030704010B2DE9F04704462DEDD6
:10292800028B82B000294DD0012140F20112002310
:102938000091ADF804208DF80630364A0127364B51
:1029480004F10409354904F12908626040F2027271
:10295800A36040F60663E16004F1250AA4F8252087
:10296800A4F82930278284F8277084F82B7004F0A3
:1029780053FB054604F0B4F96946064650BB4DB30F
:1029880004F130008DF8067004F0CCFA072D3CD124
:1029980004F114052046FFF739FF284601F0E4F852
:1029A8002846B0EE408A01F0CDF8D0ED007AF8EE76
:1029B800677A88EE277A84ED0E7A02B0BDEC028B36
:1029C800BDE8F08740F2011300918DF80610ADF8CC
:1029D8000430B2E704F1300004F0A4FA072D11D056
:1029E8004946204602F0A0FC0EB9002DD0D1504631
:1029F80001F0E8FF404601F0E5FF04F1120000F0A5
:102A080079F9C5E7002EF2D1C2E74946204602F01F
:102A18008BFCBDE70508050905070506050A060636
:102A280010B584B003460124ADF8040003A8ADF83E
:102A38000C30ADF80E4001F0C5FF214603A802F0A6
:102A4800ABF8204604F04AF9002103A802F0A4F8E4
:102A5800204604F043F9214603A802F09DF804B08B
:102A680010BD00BF10B5C2F3002384B00C46017C32
:102A78008DF80D2043EA4402FA2402238DF80C2035
:102A880003AA009402F09EFA18B10124204604B06B
:102A980010BD04460A2004F021F9204604B010BDF8
:102AA800034670B543F8042B044684B007C983E88D
:102AB8000700A37983B91A210B461E22FA2523742D
:102AC8002046ADF80C20022303AA009502F07AFAFA
:102AD80028B1012004B070BD1B210B46EDE70A2088
:102AE80004F0FCF84FF4B85200950223ADF80C201E
:102AF800204603AA217C02F065FA0028E9D10A20C1
:102B080004F0ECF841F2027200950223ADF80C20B3
:102B1800204603AA217C02F055FA0028D9D10A20C0
:102B280004F0DCF8042200950223ADF80C202046BE
:102B380003AA217C02F046FA0028CAD10A2004F030
:102B4800CDF8062200950223ADF80C20204603AAF2
:102B5800217C02F037FA0028BBD10A2004F0BEF825
:102B680041F2082200950223ADF80C20204603AA62
:102B7800217C02F027FA0028ABD10A20064604F08F
:102B8800ADF80095022303AA217C2046ADF80C601D
:102B980002F018FA00289CD1304604F09FF80095FE
:102BA80022790C232046002A8DF80C3003AA4FF016
:102BB800020314BF622142218DF80D10217C02F01E
:102BC80001FA002885D1304604F088F82279D4E942
:102BD80002310B43DBB20AB943F0400362790AB110
:102BE80043F020030E22FA258DF80D30204600957B
:102BF80002238DF80C2003AA217C02F0E3F90028B7
:102C08007FF467AF0A2004F069F8102200950223C8
:102C1800ADF80C20204603AA217C02F0D3F9002845
:102C28007FF457AF0A2004F059F8122100950223C7
:102C3800ADF80C1003AA217C204602F0C3F9002845
:102C48007FF447AF0A2004F049F801220921204601
:102C5800FFF708FF003818BF01203BE7F0B5102345
:102C680087B0234C012200250126002702A920460F
:102C78000195CDE902234FF48052CDE904670BF0AA
:102C8800AFF8642004F06EFC02A94FF4805220468D
:102C9800CDE9046702261027CDE902670BF0A0F8FA
:102CA8000322102302A92046CDE90223002304228F
:102CB800CDE904234FF480520BF092F840F232230E
:102CC800042202A9019310232046CDE90223019A88
:102CD800012305924FF4805204930BF081F840F6DB
:102CE800060120460BF09CF8284607B0F0BD00BF4F
:102CF800B00900241C4B00221C494FF0400C30B591
:102D0800054689B00220596007219A601A62012499
:102D1800DA620A224FF4006EDC6006922022CDE9C6
:102D2800000104200821CDE9020103201021CDE98A
:102D3800040108206946C3E904024FF4C072181D53
:102D4800C3E906C24FF48052C3E909E20BF01EF84A
:102D580038B92846FFF782FF003818BF012009B0AC
:102D680030BD204609B030BDAC09002440410052B6
:102D7800614A0021D0B513688EB00A91002B40F04B
:102D8800B9805E4B01214FF683700C24116002213B
:102D9800D3F8D4200026032742F48052C3F8D42065
:102DA800D3F8D42002F480520092009AD3F8E0209D
:102DB80042F01002C3F8E020D3F8E02002F010023D
:102DC8000192019AD3F8E02042F04002C3F8E020D3
:102DD800D3F8E02002F040020292029AD3F8E020F1
:102DE80042F00802C3F8E020D3F8E02002F008021D
:102DF8000392039AD3F8E02042F48072C3F8E020EB
:102E0800D3F8E02002F480720492049AD3F8E02008
:102E180042F08002C3F8E020D3F8E02002F08002FC
:102E28000592059AD3F8E02042F02002C3F8E0208A
:102E3800D3F8E02002F020020692069AD3F8E020A8
:102E480042F00402C3F8E020D3F8E0300C9403F019
:102E5800040307930323079A0B93CDE9080108A9F4
:102E6800274806F031FB48F23712022308A9254803
:102E78000C94CDE90823CDE90A6706F025FB4CF24E
:102E88000372022308A920480C94CDE90823CDE950
:102E98000A6706F019FB40F2FF62022308A91B48E3
:102EA8000C94CDE90823CDE90A6706F00DFB4FF62F
:102EB8000C72022308A916480C94CDE90823CDE921
:102EC8000A6706F001FB4FF63F02022308A91148E2
:102ED8000C94CDE90823CDE90A6706F0F5FA20221B
:102EE800022308A90A480C94CDE90A67CDE908230A
:102EF80006F0EAFA0EB0D0BDA80900240044025832
:102F08000010025800180258000C025800200258FD
:102F1800001C0258001402582DE9F04FDFF8108405
:102F280006460D46144608F118002DED028B89B0AF
:102F380000AF02F071FED8F8183073B3D8F81C301F
:102F4800D8F80490002B43690BBF4FF0080A4FF0E4
:102F5800100A4FF0020B4FF0040BB9F1000F2AD002
:102F6800A200EA46012B02F1070222F00702ADEBAC
:102F7800020D6846ADEB020D694600F03F81022B59
:102F880000F0D680002B6FD02246C847D54624379C
:102F9800BD46BDEC028BBDE8F08FD8F81C30002B85
:102FA800F5D0D8F804904FF0080A4FF0020B4369A7
:102FB800B9F1000FD4D1FB61D8F80030BB61002B08
:102FC800E5D0D54802F09AFE6B46BBF1020F786156
:102FD80008EE103AFB6900F083816A465146A2EB7D
:102FE800C40295466200EA46B2FBFBF2AAEBC400B3
:102FF80085460AEB8200EE46F861ADEB010DF869F3
:103008000EEB820CC7F810C0EC46ADEB010D00EBDF
:103018008201CCF80400CCF8081001EB8201386971
:10302800E946CCF80C1000EB8201CCF800A001EBCB
:103038008202C9E900E0C9E90212012B00F06483A9
:10304800022B00F06C82002B00F080816208494658
:103058006046BB69984718EE103A24379D46BD462E
:10306800BDEC028BBDE8F08F002C8DD01A46D8ED50
:103078000C6A9FEDB27A8446331D36F922E00CF1D2
:10308800080C07EE90EA33F922E00232F8EEE77A0C
:10309800944267EE877A67EEA67A4CED027A07EEDD
:1030A80090EAF8EEE77A67EE877A67EEA67A4CED53
:1030B800017AE2D8F9612246C847984ED8ED0D6AE0
:1030C8000020F9692B1D9FED9E7A9FED9E6ADFED2A
:1030D8009E5A22E0F4EEC67AF1EE10FAC0F2C884E5
:1030E80047F6FE72D1ED017A45F8202066EEA77A00
:1030F800F4EEC77AF1EE10FA40F2F080F4EEC67AF8
:10310800F1EE10FAC0F2D58447F6FE7243F820209B
:103118000230083184427FF639AFD1ED007A66EE8D
:10312800A77AF4EEC77AF1EE10FAD3D83246D9E787
:10313800002C3FF429AFD8ED0C6A84469FED787ACD
:103148000022331D8E4656F822100CF1080C07EEAB
:10315800901A53F822100232F8EEE77A944267EE9A
:10316800877A67EEA67A4CED027A07EE901AF8EEA7
:10317800E77A67EE877A67EEA67A4CED017AE2D8AD
:1031880071462246C7F81CE0C847664ED8ED0D6A5E
:103198000020F9692B1D9FED6A7A9FED6A6ADFF8B6
:1031A80094C120E0F4EEC67AF1EE10FAC0F2798408
:1031B8003246D1ED017A45F8202066EEA77AF4EE82
:1031C800C77AF1EE10FA40F28780F4EEC67AF1EE93
:1031D80010FAC0F25E84324643F8202002300831EB
:1031E80084427FF6D3AED1ED007A66EEA77AF4EE8C
:1031F800C77AF1EE10FAD5D86246DAE7002C3FF428
:10320800C3AED8ED0C6A86469FED477A4FF0000CA6
:10321800331D56F82C200EF1080E82F40002A2F598
:10322800000207EE902A53F82C200CF1020CF8EE5D
:10323800E77A82F400026445A2F5000267EE877A15
:1032480067EEA67A4EED027A07EE902AF8EEE77A54
:1032580067EE877A67EEA67A4EED017AD9D8F961DA
:103268002246C847314ED8ED0D6A0020F9692B1D5A
:103278009FED337A9FED336ADFF8BCC01FE0F4EEB0
:10328800C67AF1EE10FAC0F2FC833246D1ED017A2B
:1032980045F8202066EEA77AF4EEC77AF1EE10FA28
:1032A80018D9F4EEC67AF1EE10FAC0F2DA83324693
:1032B80043F820200230083184427FF667AED1ED12
:1032C800007A66EEA77AF4EEC77AF1EE10FAD6D84D
:1032D8006246DBE76246EBE762467DE7324615E782
:1032E800A100D6466208073121F00701ADEB010DB8
:1032F800EA46ADEB010D6946ADEB0E0D0AEB820017
:10330800EC46ADEB0E0D01EB8202F861E946CCE923
:1033180000A0C9E9001290E6000A00240280FFFF1D
:10332800000000300082FF7F0000003482FF7F0031
:10333800E4090024007E00807E0080FF0000003841
:1033480004FF7FBF04FF7F3F00FEFF46002C00F014
:10335800C982BBF1020FD8F8242000F0FA827969FB
:10336800C7F8049002EB810E5FED0C5A8A00DCF876
:1033780008100EF104007A611A46DCF80C303B6143
:10338800331DD7F810903D61FD69C7E902CB8C4623
:10339800834636F92210D8ED0C7A06EE101A33F966
:1033A800221006EE901A3EF92210B8EEC66A07EE11
:1033B800101AF8EEE66A3BF92210B8EEC77A26EE44
:1033C800256A66EEA56A27EE257A26EE276A66EE56
:1033D800A76A27EE277A07EE901A51080232F8EE0C
:1033E800E77A0AEB8100944280ED006A05EB8100E0
:1033F80067EEA57AC0ED006A0CEB810009EB81014C
:1034080080ED007A98ED0C7A67EE877AC1ED007A44
:10341800BFD8D7F804903D69D7E902CB6046620867
:10342800BB6949469847D8F82C307A69D8ED0D6AB7
:103438001A441FED3D7A1FED3D6A2B1D904602F19F
:10344800040A5FED3F5A0022A84ED9E900EC51E08A
:10345800F4EEC67AF1EE10FAC0F2C78247F6FE70B3
:1034680045F822000CEB0100D0ED007A66EEA77A51
:10347800F4EEC77AF1EE10FA4BD9F4EEC67AF1EE13
:1034880010FAC0F2BA8247F6FE70BBF1020F43F899
:1034980022002BD0D9F808000844D0ED007A66EE57
:1034A800A77AF4EEC77AF1EE10FA36D9F4EEC67AB6
:1034B800F1EE10FAC0F2CD8247F6FE7048F822000D
:1034C800D9F80C000144D1ED007A66EEA77AF4EE43
:1034D800C77AF1EE10FA1ED9F4EEC67AF1EE10FAB8
:1034E800C0F2AF8247F6FE714AF8221002329442C7
:1034F8007FF6B1AD51080EEB81008900D0ED007A5E
:1035080066EEA77AF4EEC77AF1EE10FAA0D8304644
:10351800A6E73046B9E73146E6E73046CEE7002C65
:1035280000F0E081BBF1020FD8F8243000F0E1810F
:103538007A69DCF8081003EB820EC7F80490930050
:10354800DFED6B5A0EF1040000227B61DCF80C30D1
:103558003B61331DD7F810903D61FD69C7E902CB87
:103568008C46834656F82210D8ED0C7A07EE101ACE
:1035780053F82210B8EEC76A07EE101A5EF8221048
:10358800F8EEC76A07EE101A26EE256A5BF82210D5
:10359800B8EEC77A66EEA56A26EE276A27EE257A80
:1035A80066EEA76A27EE277A07EE901A51080232CC
:1035B800F8EEE77A0AEB8100944280ED006A05EBA9
:1035C800810067EEA57AC0ED006A0CEB810009EB7B
:1035D800810180ED007A98ED0C7A67EE877AC1ED6B
:1035E800007ABFD8D7F804903D69D7E902CB604686
:1035F8006208BB6949469847D8F82C307A69D8EDF3
:103608000D6A1A449FED3E7A9FED3E6A131D92465D
:10361800DFF8E4C00022FB612B1D364ED9E9008E8D
:103628004EE0F4EEC67AF1EE10FAC0F2FC813046B4
:1036380045F822000EEB0100D0ED007A66EEA77A7D
:10364800F4EEC77AF1EE10FA49D9F4EEC67AF1EE43
:1036580010FAC0F2EF813046BBF1020F43F82200A6
:103668002AD0D9F808000844D0ED007A66EEA77A87
:10367800F4EEC77AF1EE10FA35D9F4EEC67AF1EE27
:1036880010FAC0F2C98130464AF82200D9F80C0075
:103698000144D1ED007A66EEA77AF4EEC77AF1EE2E
:1036A80010FA1ED9F4EEC67AF1EE10FAC0F2AD8126
:1036B8003146F86940F82210023294427FF6CBACCA
:1036C800510808EB81008900D0ED007A66EEA77AF0
:1036D800F4EEC77AF1EE10FAA3D86046A8E7604680
:1036E800BAE76146E5E76046CEE700BF0280FFFF24
:1036F800000000300082FF7F007E00800000003460
:1037080004FF7FBF04FF7F3F002C00F0EB807A6945
:103718000021D8F82430C7F8109003EB820ED7F8B0
:103728001C909300FD610EF104021FED0C6A7B6191
:10373800331D154656F821204808D8ED0C6ABBF110
:10374800020F82F40002A2F5000207EE902A53F855
:10375800212082F40002B8EEE77AA2F5000227EEF3
:10376800067A07EE902A0AEB8002F8EEE77A27EE4F
:10377800267A67EE867A82ED007A09EB80024FEAB4
:10378800800067EEA67AC2ED007A27D05EF8212085
:1037980082F40002A2F5000207EE902A55F82120D3
:1037A80082F40002B8EEE77AA2F5000227EE067A64
:1037B80007EE902ADCF80820F8EEE77A024427EEB4
:1037C800267A67EE867A82ED007A98ED0C7ADCF834
:1037D8000C2067EE877A0244C2ED007A02318C42EF
:1037E800A8D8D7F8109060466208BB694946FD69B9
:1037F8009847D8F82C307A69D8ED0D6A1A441FED2D
:10380800407A1FED406A131D9246DFF8C4C20022B9
:10381800FB612B1DAB4ED9E9008E4EE0F4EEC67A63
:10382800F1EE10FAC0F2C580304645F822000EEBE2
:103838000100D0ED007A66EEA77AF4EEC77AF1EED1
:1038480010FA49D9F4EEC67AF1EE10FAC0F2BF8048
:103858003046BBF1020F43F822002AD0D9F80800FD
:103868000844D0ED007A66EEA77AF4EEC77AF1EE56
:1038780010FA35D9F4EEC67AF1EE10FAC0F2AE803D
:1038880030464AF82200D9F80C000144D1ED007AFC
:1038980066EEA77AF4EEC77AF1EE10FA1ED9F4EEC6
:1038A800C67AF1EE10FAC0F28B803146F86940F81A
:1038B8002210023294427FF6CEAB510808EB810009
:1038C8008900D0ED007A66EEA77AF4EEC77AF1EEB9
:1038D80010FAA3D86046A8E76046BAE76146E5E76C
:1038E8006046CEE7224649466046BB699847FFF7DF
:1038F800B2BBC7F810B0002298ED0C6A331DDFED9B
:10390800726AD7F81CB0786956F8221007EE901A38
:1039180053F82210B8EEE77A07EE901A51080232EF
:10392800F8EEE77A27EE267A0AEB810E94420BEB43
:10393800810167EEA67A27EE067A67EE867A8EED23
:10394800007AC1ED007ADFD88300D7F810B07B6128
:103958004DE61A46C7F810B098ED0C6A331DDFED36
:103968005B6AD7F81CB0786936F9221007EE101A8E
:1039780033F9221007EE901AB8EEC77A51080232CE
:10398800F8EEE77A27EE267A0AEB810E94420BEBE3
:10399800810167EEA67A27EE067A67EE867A8EEDC3
:1039A800007AC1ED007ADFD88300D7F810B07B61C8
:1039B80034E5F0EE675AFEEEE45A15EE900A34E765
:1039C800F0EE675AFEEEE45A15EE901A6EE7F0EE46
:1039D800675AFEEEE45A15EE900A3AE7F0EE675A97
:1039E800FEEEE45A15EE900A4BE767EEA57AFDEE77
:1039F800E77A17EE900A00B232E567EEA57AFDEE97
:103A0800E77A17EE900A00B23FE5F0EE675AFEEE4D
:103A1800E05A15EE901A4CE6F0EE675AFEEEE05AC0
:103A280015EE900A30E6F0EE675AFEEEE05A15EE13
:103A3800900AFDE5F0EE675AFEEEE05A15EE900AA0
:103A48000AE667EEA57AFDEEE77A17EE901A09B254
:103A58004AE567EEA57AFDEEE77A17EE900A00B21E
:103A68002CE5F0EE675AFEEEE45A15EE902A1FE4B4
:103A780067EEA57AFDEEE77A17EE902A12B2FFF705
:103A880031BBF0EE675AFEEEE45A15EE902AFFF7C6
:103A9800FDBBF0EE675AFEEEE05A15EE902AFFF7EE
:103AA8009BBBF0EE675AFEEEE05A15EE902AFFF740
:103AB80080BB67EEA57AFDEEE77A17EE902A12B280
:103AC800FFF724BB82FF7F000000003000000038B1
:103AD8007E0080FF30B5184C154685B0046004F1AF
:103AE800080EEC460FC98EE80F00D4ED047AF5EE07
:103AF800C07A8CE80F00F1EE10FA1ADDB7EE006A12
:103B080094ED057A27EE277AC6EE276A84ED0D7ABA
:103B1800C4ED0C6A6DB1204640F8185F02F07CF8DD
:103B2800064903690020064A2162A262E36005B0E3
:103B380030BD012005B030BDE4090024002000306C
:103B48000000003000680830704700BFB1F5807F82
:103B580003680A4628BF4FF48072B1F5807F9A60E7
:103B680094BF0020012070470068183002F0B4B8F4
:103B780070B504688AB0A369E160CBB104F1180597
:103B8800284602F049F88446EE46E668BCE80F008D
:103B9800AEE80F00BCE80F00AEE80F009CE8030099
:103BA8008EE8030069462846049601F03DFFF8B9FF
:103BB800E069D8B104F11C05284602F02DF88446C6
:103BC800EE46E468BCE80F00AEE80F00BCE80F0062
:103BD800AEE80F009CE803008EE80300694628461B
:103BE800049401F021FF003818BF01200AB070BD0D
:103BF80001200AB070BD00BF30B5046883B0084822
:103C08000D46A368A26A216A9B00009004F118007F
:103C180002F004F80020C4E9000503B030BD00BF7D
:103C2800212F000810B4074B4FF07E51302400229A
:103C3800032019619C60D8605DF8044B5961C3E9A1
:103C480006227047E4090024F6EE007A9FED166A12
:103C580020EE207A0160F7EE006A80ED036A80EDBD
:103C6800020A27EE277AC6EE877AF4EEE67AF1EEB4
:103C780010FA11DDF0EE667A4FF07E514FF0000C2D
:103C880002760022C0ED017AC0F814C001614376C3
:103C98008276C0ED070A7047F4EEC67AF1EE10FAA4
:103CA800EAD5F0EE467AE7E7000000000268037EF6
:103CB800128807EE902AFBEEC87A1BB1B7EE007A9D
:103CC80077EE677AD0ED056A90ED047A77EEE67ABA
:103CD800437E67EE877A0BB1F1EE677A90ED030ABF
:103CE80090ED017A77EEC07AA7EE270A80ED030AF5
:103CF800704700BF70B584B0002504461646ADF87D
:103D08000C102B462A460399009500F05FFDA5820A
:103D1800A67504B070BD00BF30B52DED028B83B021
:103D2800044601231546ADF804101730BDF80410F9
:103D3800B0EE408A0180637600F044FEB5FA85F360
:103D4800002200215B092575A16084ED048AA57510
:103D58006375C4E9002203B0BDEC028B30BD00BF1F
:103D680020EE007ADFED067A27EE000A60EE277A69
:103D780080ED020AFCEEE77AC0ED017A704700BFD9
:103D880000FF7F4790ED046AB7EE007ADFED0E5A28
:103D98000346D0ED036AC5EE867A77EEA67AF4EE8E
:103DA800C77AF1EE10FAC8BF77EEC77A90ED027ABB
:103DB800B4EEE77AC0ED037A1730F1EE10FACCBF13
:103DC800597D997D00F0E8BE0000F04270B50446C8
:103DD80082B0C1F30726CDB2ADF8041002F07CFF23
:103DE8004FF480724FF001232060A01DA571A280BE
:103DF800E671A36002B0BDE8704000F0E3BD00BF0B
:103E080038B5044602F068FF002223682271834215
:103E180010D00122A57AE37A954020602271A01D76
:103E28006DB243B900F0AAFE40B22843C0B27F2861
:103E3800A0720AD038BD00F0A1FEB0FA80F04009A7
:103E48002843C0B27F28A072F4D102F045FF07EEE4
:103E5800900AF8EE677AC4ED037A38BD00B583B0EE
:103E68004FF0000E4FF0030C4274ADF80410BDF88B
:103E7800043080F810E0A0F802C0038003B05DF8B9
:103E880004FB00BF2DE9F04FDFF81C8300258DB03F
:103E9800C04C037008F140034260074601920E4689
:103EA800202229464046C4F86831C4F86481CDE927
:103EB8000255CDE90455CDE90655CDE90855CDE9BA
:103EC8000A550FF049FE2022294604F5A170C4F8CE
:103ED8003151C4F83551C4F83951C4F83D510FF087
:103EE8003BFE019B84F8485284F830317A68002AF6
:103EF8006AD02B4604F59871454606F1100A9E468D
:103F0800F01856F803B0E2180EF1010ED0F80CC004
:103F1800D0F80490D0F8088044F803B0C2F80CC078
:103F28004FF0000CC2F80490C2F80880008A25F807
:103F380002CB10821AF8032001F8012F002A70D052
:103F48007A684FF001001233724584F84802D7D8D6
:103F58004FF4802290489DF8043008214FF0000863
:103F68004FF00009C4F884310023C4E95B02012240
:103F7800C4F8743184F88031C4E95E2194F8481299
:103F8800C4E96489A9B3C4F89821002284F881316E
:103F980084F888313B78C4E96722002B38D00122A5
:103FA80000200121013B84F8A421C4E96C01082BFD
:103FB80030D8DFE813F0BD00C200C700CC00D10044
:103FC800D600DB00E100E8009DF804300121C4F8C8
:103FD8007421C4F884314FF4802384F880216E4A18
:103FE800C4E95B2308230022C4E95E130023C4E963
:103FF80064230123002284F88131002384F8883166
:104008000323C4F898313B78C4E96722002BC6D152
:1040180084F8A431614803F0DDFE034638B1FFBEE1
:10402800FEE77A68123372453FF66AAF90E702A955
:104038005A48029304F02CF88246002876D10422CC
:1040480040F2FF710A90CDE9081294F83021002A55
:1040580000F0F3804FF006080AEBCA034FEACA09DA
:1040680004EB43035B7C072B07D8DFE803F0595CBC
:104078005653504D4A04072307930FFA8AF6D14442
:1040880006EBC60604EB490904EB460775003846FB
:1040980000F098FC99F81030042B00F3AA80022B4A
:1040A80000F3BD8000F0B98004EB0A03002283F816
:1040B800202114F81630002B78D0022B00F08A80CB
:1040C800012B40F0B2807B78012B00F0B080002BF0
:1040D800334B18BF002305A93048CDE9053803F054
:1040E800A5FA002840F0AC800AF1010A94F83031B2
:1040F8005FFA8AFA534540F2A0802A4B53F82A8087
:10410800AAE706230793B8E705230793B5E704232F
:104118000793B2E703230793AFE702230793ACE7BC
:1041280000230793A9E701230793A6E7FFBEFEE74D
:1041380003224023C4E96A236CE707226023C4E909
:104148006A2367E70F228023C4E96A2362E71F22F4
:10415800A023C4E96A235DE73F22C023C4E96A2398
:1041680058E77F22E023C4E96A2353E7FF224FF48C
:104178008073C4E96A234DE740F2FF124FF490734D
:10418800C4E96A2346E740F2FF324FF4A073C4E95A
:104198006A233FE7200A0024002002408C0B0024F9
:1041A8000002B025EC3C0108004000307B78062B6B
:1041B80037D0072B3DD0022B4AD0032B4AD0002BF7
:1041C8004CD0012B48D0042B4AD0052B254B18BFC7
:1041D800002380E77B78042B25D0052B2BD08BB3CD
:1041E800012B31D0022B31D0032B1F4B18BF0023DA
:1041F80071E70323043504EB0A0B4FF0000925444B
:104208008BF82031284609F1010900F0DBFB9BF807
:10421800203104354B45F5DC4BE70123EAE702235F
:10422800E8E7124B57E7124B55E7002353E7114BCA
:1042380051E7114B4FE7114B4DE70DB0BDE8F08F3B
:10424800FFBEFEE70E4B46E70E4B44E70E4B42E738
:104258000E4B40E70E4B3EE70E4B3CE70E4B3AE762
:104268000E4B38E70000B84F002090360800900C3D
:104278001000C0102000F0148000501D00018021A3
:104288000004002A0008302E001060320040C03AB6
:104298000080F03E00005247000021430000844B9C
:1042A80038B5094C40F2FF724FF0011104F5B675AC
:1042B800284603F09BFE94F83021D4F86411284670
:1042C800BDE8384003F006BC200A0024034B0F2940
:1042D800D3F8640198BF00EB41007047200A00241E
:1042E800214B02689A4200D07047204A0023204898
:1042F800D2F8D81030B51F4C41F0200183B0C4F873
:10430800D001092004F5E875C4E975034FF480600D
:10431800C2F8D810D2F8D8204FF40061C4E9773039
:1043280094F8480202F02002C4F8E4114FF4005156
:10433800984201922846C4F8E811C4E97C33019BED
:1043480014BF00234FF48073C4F8EC3104F0F2F981
:1043580008B1FFBEFEE704F5B673C4F8B851C4F857
:10436800083203B030BD00BF0020024000440258AC
:1043780040000240200A0024014804F053BD00BF59
:10438800F00B002402682DE9F84F4B4B9A4201D0FC
:10439800BDE8F88F494D95F84832002BF8D095F8CC
:1043A8003031002B77D0002405F10C0905F5A176F2
:1043B80005F59877A04613E003F0010117F811BC42
:1043C800A9F1080000F0E8FBBBF1010F25D895F82A
:1043D8003031013409F112090236A2B293422BD9C5
:1043E80017F8012F002AF4D0D5F86431002132786B
:1043F80033F81400D5F8683103EB041323F81200DE
:10440800338801339BB233805FFA83FA3A789A4251
:10441800D2D88A46A6F80080D0E7CAF34001A9F1AD
:10442800040000F0B9FBBBF1020FCAF38001CED043
:10443800484600F0B1FBCAE7002395F84802204936
:1044480009229842C5F8D8314FF48060C5F8D011D8
:10445800C5F8D4214FF400614FF40052C5F8DC319F
:1044680008BF4FF48073C5F8E821C5E97801002238
:104478001448C5E97B32C5F8F42104F05BF908B1AA
:10448800FFBEFEE795F83021D5F864110E48BDE867
:10449800F84F03F01FBB0A4909224FF48060C5F8A2
:1044A800D831C5E974124FF400614FF40052C5E9E0
:1044B8007730C5E97912DAE700200240200A0024A3
:1044C80040000240F00B00248C0B0024704700BF12
:1044D8004F4B02689A4200D070474E4BD3F8E81011
:1044E80030B541F000514C4C85B0D4F84821C3F8A0
:1044F800E810D3F8E81001F0005101910199D3F8C0
:10450800E01041F00101C3F8E010D3F8E03003F007
:1045180001030293029B32F002033DD0013A012AC3
:104528006BD9D4F84C31012B0AD000223620114621
:1045380003F022FE362005B0BDE8304003F05ABE35
:10454800D4F8483133F0020234D0013B012BECD8C7
:10455800442240233149324DC4F88C1000212846AA
:10456800C4F8B010C4E9242300224FF48063C4E9DE
:1045780026234FF400624FF40053C4E928234FF474
:1045880080724FF48033C4E92A2304F0D3F880B949
:10459800E560C4F8C440C8E74FF48062032303A869
:1045A800ADF80C208DF80E3000F00CFAD4F8482144
:1045B800B4E7FEE71B4BA2634322636140231A4D15
:1045C800C4E9062300224FF480632846C4E908237F
:1045D8004FF400624FF40053C4E90A234FF4807289
:1045E8004FF48033C4E90C2304F0A4F820B9D4F8BC
:1045F8004831A560E464A8E7FEE74FF4A06203230E
:1046080003A8ADF80C208DF80E3000F0DBF988E730
:104618000074004000440258700C00242804024032
:10462800FC0C002410040240840C0024014804F00F
:10463800F9BB00BF840C0024014804F0F3BB00BFA1
:10464800FC0C002410B5054C204603F0BFFE04F511
:104658008270BDE810400AF0B3BC00BF700C0024A3
:1046680030B58C463A4C3B4D8DB0046004F5A27EC3
:10467800BCE80F00AEE80F00DCF8003020462560EB
:10468800CEF8003003F044FE0023D4F84C510393D5
:10469800C5B11622012D049217D00022D4F8541166
:1046A800D4F848319142CDE9062218BF022205927A
:1046B80033F0020235D0013B012B3CD900252846B6
:1046C8000DB030BD02230493E7E7234A0093C4F8F2
:1046D8000C31C4F81431C4F80421C4F81C31CDE9F4
:1046E800013302F097FCD4F844314BF68032C4F819
:1046F8000851002B08BF1346B0FBF3F304F5827092
:10470800C4F810310AF0C6FA0028D8D12023029044
:10471800694604F5827000930AF00AFD0028BCD0AF
:10472800CDE703A90A4803F085FE78B9D4F84831E3
:10473800013B012BC2D8102203A9054803F07AFED9
:10474800051E18BF012528460DB030BD0125B6E766
:10475800700C002400740040001000402DE9F04166
:104768000668D6F84C5105BBD6F850310C461746AA
:10477800002B0CBF4FF008084FF0000831F002037F
:1047880005D0013C012C14D92846BDE8F081134618
:10479800294642463046013C03F0FEFD2946304694
:1047A80003F0CCFD012CEFD803E001252846BDE835
:1047B800F0813B4642461021304603F0EDFD1021C2
:1047C800304603F0BBFD2846BDE8F08110B592B035
:1047D800ADF804100180C9B2149C0B29C460C0E96B
:1047E80001233FD090F801C0BCF10F0F3AD8022A3C
:1047F8003FD0032A02D0012A00D000220E92012BBA
:1048080002D0022B18BF0023022C0F932CD0032CAC
:104818002AD0012C28D000230A29109327D85C4AD3
:1048280002EB812202610A2914D8DFE801F0A3957E
:1048380087796B5D4F4133250600564BD3F8E0105E
:1048480041F48061C3F8E010D3F8E03003F48063EA
:104858000C930C9B01230DA9104603FA0CF30D933E
:1048680004F032FE12B010BD0A291094D7D90022E4
:10487800D8E711220E92C2E7464BD3F8E01041F474
:104888000071C3F8E010D3F8E03003F400730B9321
:104898000B9BDFE73F4BD3F8E01041F48071C3F87E
:1048A800E010D3F8E03003F480730A930A9BD1E751
:1048B800384BD3F8E01041F08001C3F8E010D3F88A
:1048C800E03003F080030993099BC3E7314BD3F829
:1048D800E01041F04001C3F8E010D3F8E03003F0F5
:1048E80040030893089BB5E72A4BD3F8E01041F042
:1048F8002001C3F8E010D3F8E03003F02003079359
:10490800079BA7E7234BD3F8E01041F01001C3F849
:10491800E010D3F8E03003F010030693069B99E704
:104928001C4BD3F8E01041F00801C3F8E010D3F8AD
:10493800E03003F008030593059B8BE7154BD3F88C
:10494800E01041F00401C3F8E010D3F8E03003F0C0
:1049580004030493049B7DE70E4BD3F8E01041F069
:104968000201C3F8E010D3F8E03003F00203039328
:10497800039B6FE7074BD3F8E01041F00101C3F840
:10498800E010D3F8E03003F001030293029B61E7E3
:10499800000002580044025808B501214378006914
:1049A800994089B204F098FF003818BF012008BD6B
:1049B80001230A464178006903FA01F189B204F03B
:1049C80091BF00BF8378022B30B504468FB037D033
:1049D800032B33D0012B31D000230A93E378012B2A
:1049E8002AD0022B28D000230B93002320460C93B7
:1049F80002F096FC0546204602F09AFC23780990BE
:104A0800082B13D8DFE803F01F3245586B7E91A4BA
:104A18000500594BD3F8E02042F48072C3F8E02037
:104A2800D3F8E03003F480730893089B09A928465B
:104A380004F04AFD0FB030BD0B93D6E70A93CDE7DB
:104A480011230A93CAE74C4B09A92846D3F8E0205A
:104A580042F00102C3F8E020D3F8E03003F001038C
:104A68000093009B04F030FD0FB030BD424B09A904
:104A78002846D3F8E02042F00202C3F8E020D3F839
:104A8800E03003F002030193019B04F01DFD0FB019
:104A980030BD394B09A92846D3F8E02042F004027A
:104AA800C3F8E020D3F8E03003F004030293029B3C
:104AB80004F00AFD0FB030BD2F4B09A92846D3F8E2
:104AC800E02042F00802C3F8E020D3F8E03003F019
:104AD80008030393039B04F0F7FC0FB030BD264B8B
:104AE80009A92846D3F8E02042F01002C3F8E020D4
:104AF800D3F8E03003F010030493049B04F0E4FCC3
:104B08000FB030BD1C4B09A92846D3F8E02042F06D
:104B18002002C3F8E020D3F8E03003F02003059327
:104B2800059B04F0D1FC0FB030BD134B09A92846F2
:104B3800D3F8E02042F04002C3F8E020D3F8E03098
:104B480003F040030693069B04F0BEFC0FB030BD93
:104B5800094B09A92846D3F8E02042F08002C3F89F
:104B6800E020D3F8E03003F080030793079B04F0BC
:104B7800ABFC0FB030BD00BF0044025838B5054645
:104B880002F0CEFB0446284602F0D2FB014620463E
:104B9800BDE8384004F0A0BE70B506460D4602F0E8
:104BA800BFFB0446304602F0C3FB2A1E01462046DE
:104BB80018BF0122BDE8704004F094BE0023122201
:104BC80070B586B0CDE9022304930368032B01D89E
:104BD80004230593061D841D304602F0A1FB0546FB
:104BE800304602F0A5FB034601A92846019304F0CC
:104BF8006BFC204602F094FB034620461C4602F05C
:104C080097FB01A903462046019304F05DFC06B01A
:104C180070BD00BF634A0368934210B58CB028D0BA
:104C2800614A934258D0614A934200F09480604AA6
:104C3800934201D00CB010BD5E4C5F48D4F8E03010
:104C480043F00203C4F8E030D4F8E03003F0020384
:104C58000A930A9BFFF7B2FFD4F8F43043F08003BD
:104C6800C4F8F430D4F8F43003F080030B930B9BB2
:104C7800E0E7504C5148D4F8E03043F00203C4F860
:104C8800E030D4F8E03003F002030193019BFFF712
:104C980095FFD4F8E83000221F2043F40013114692
:104CA800C4F8E830D4F8E83003F400130293029B08
:104CB800D4F8D83043F00103C4F8D830D4F8D83049
:104CC80003F001030393039B03F056FA1F200CB073
:104CD800BDE8104003F08EBA364C3948D4F8E030BD
:104CE80043F08003C4F8E030D4F8E03003F08003E8
:104CF8000493049BD4F8E03043F00203C4F8E03096
:104D0800D4F8E03003F002030593059BFFF756FF44
:104D1800D4F8E8300022212043F480031146C4F877
:104D2800E830D4F8E83003F480030693069BD4F8FF
:104D3800D83043F00103C4F8D830D4F8D83003F0A1
:104D480001030793079B03F017FA21200CB0BDE875
:104D5800104003F04FBA1B48FFF730FF154B0022F5
:104D68004820D3F8E840114644F40004C3F8E8406A
:104D7800D3F8E84004F400040894089CD3F8D84019
:104D880044F00104C3F8D840D3F8D83003F0010345
:104D98000993099B03F0F0F948200CB0BDE81040D6
:104DA80003F028BA0054004000580040005C00405E
:104DB800001C00580044025864100024DC0D002434
:104DC800B40E00248C0F00242DE9F0431A4B87B051
:104DD80000254FF010099E46EC46184BFF22E0468E
:104DE80067461A700EF118060EF13004CDE9005529
:104DF800CDE90255ADF80090BCE80F00CDE90455A7
:104E0800AEE80F009CE803000095ADF800908EE82E
:104E18000300B8E80F000FC69CE803000095ADF842
:104E2800009086E803000FCF0FC49CE8030084E8D5
:104E3800030007B0BDE8F08304000024D80D002467
:104E480010B5EFF3108472B6084B1A78120602D523
:104E580004B962B610BD1B78D82205485BB202FBC4
:104E68000300143003F0DEFFF2E700BFD80D002482
:104E7800DC0D0024014805F0CDBB00BF680E0024FE
:104E8800014805F0C7BB00BF400F0024014805F0EA
:104E9800C1BB00BF181000242DE9F0430F68D824C7
:104EA8003F4D85B007FB04F4032F05EB04030360B3
:104EB80040DCCB680E46012B3CD84DD04FF0D808CB
:104EC800B646DFF8FC9008FB0758BEE80F00C4465A
:104ED800ACE80F00DEF800300DF1100ECCF8003011
:104EE800D8F808C099E80F000EE90F000EEB870309
:104EF800BCF1010F53F8103CC8F88C3031D0BCF12C
:104F0800020F42D0BCF1000F35D0317C8C34D8234D
:104F1800002201202C4403FB07534900C3E9260261
:104F2800C3F894102046C3E92822C3E92A2205F0D1
:104F380063F918B1012005B0BDE8F08301462046A9
:104F480005F074FB0028F5D10146204605F098FBD2
:104F5800003818BF0120EEE70B7C103B672BADD95A
:104F6800E8E702F055F80F4B98420CBF0E4B0F4B79
:104F7800C8F89030C9E702F04BF80A4B98420CBFCA
:104F88000B4B0C4BC8F89030BFE702F041F8054BCB
:104F980098420CBF084B094BC8F89030B5E700BFE2
:104FA800DC0D0024000E27072D0FB0303211D02061
:104FB8005F4390608A62E030200BA0101A098010CD
:104FC800243C01082DE9F041D0F8008082B00D465C
:104FD80017461E4608F18C04204605F023FB2028BE
:104FE800FAD1D8F80C3073B96D002046089C3346C6
:104FF8003A46A9B2009405F055F9003818BF0120C7
:1050080002B0BDE8F081089B32463946204605F0DB
:105018001DFAF2E7044B10221A7483F8E82083F88B
:10502800C02183F898227047DC0D002430B5002396
:1050380095B04FF48071062204460B9306921393A1
:10504800CDE90C13CDE90E33CDE9113301F0E4FFBE
:1050580007282BD004F1100541F2883206A928460A
:1050680006F020F928B10123184684F85C3015B001
:1050780030BD0222022306A92846CDE900231022CA
:105088000123CDE9022300224FF48003CDE9042354
:1050980005224FF0807306926A460F9341F28833D7
:1050A80006F06CFA0028DED115B030BD03230120CC
:1050B80084F85C3015B030BD70B50023A4B04FF053
:1050C80080724FF480750446ADF806300D93CDE933
:1050D80010320122CDE90E53CDE91223CDE9143364
:1050E800002943D0F02300F1100508AEADF80630D2
:1050F800C02341F2883231462846089306F0D2F898
:1051080028B10123184684F85C3024B070BD41F200
:1051180088320DF10601284606F02EF903460028CC
:10512800EFD105224FF480711E93284616924FF056
:1051380080721B9321931F9202AA9FED1F7BCDE9DA
:105148001C13CDE922338DED027B9FED1D7B41F2CF
:10515800883316A98DED047B9FED1B7B8DED067BB7
:1051680006F00CFA0028CCD124B070BD00F110056F
:1051780008AE612341F2883231462846089306F08A
:1051880091F80028BDD141F288320DF10601284678
:1051980006F070F90028B4D1BDF80630204623F097
:1051A800780343F04003ADF80630FFF73FFF0028CF
:1051B8009ED0A6E7AFF300800000000001000000C9
:1051C8001000000001000000000000000000400086
:1051D8002DE9F04F00234FF4807501264FF08078B9
:1051E80004462DED028BABB08DF807301393219355
:1051F800299314950E96CDF85C80CDE91533CDE949
:105208001863CDE91A33CDE92253CDE92433CDE92A
:10521800273306231C9301F0FFFE072808D004F16A
:10522800100741F288321CA9384606F03BF840B115
:105238000123184684F85C302BB0BDEC028BBDE826
:10524800F08F4FF0020A4FF0020B4FF0050941F2C0
:10525800883308AA1CA93846CDF89480CDF87090F8
:105268009FED2D8BCDE908AB4FF0000A4FF4800B72
:105278008DED0A8BCDE90CAB06F080F90028D7D16B
:1052880041F2883238460EA906F00CF80028CFD132
:10529800402341F288320DF1070138468DF8073076
:1052A80006F06AF80028C3D141F288330EA902AA91
:1052B8003846CDF83890CDF85C809FED197B8DEDA0
:1052C800048BCDE906AB8DED027B06F057F903465A
:1052D8000028ADD1CDF870904FF00109CDF8948039
:1052E8004FF00008219308AA29931CA93846229553
:1052F800CDE92333CDE9273341F288338DED0A8B8D
:10530800CDE90CABCDE9088906F038F9002893D02F
:10531800304684F85C608FE7100000000100000050
:1053280040000000400000002DE9F043624CA3B0AB
:105338000D46046001F070FE072800F0A980286877
:1053480023466968AA6807C31E46AB8926F8043B4A
:105358003046257B677B05F087FFE0B9574B012D69
:105368004FF00108E061236114BF4FF480134FF43C
:105378000003C4E9058893FAA3F3B3FA83F34FF45F
:105388008079013BC4F82490C4E90B0030462362BD
:1053980005F0FEFE38B10122134684F85C20184659
:1053A80023B0BDE8F08366230B90139041F2883256
:1053B80006A90693CDE90C90CDE90E00CDE91100C0
:1053C800304605F06FFF0028E5D1992341F2883275
:1053D80006A93046069305F065FF0028DBD10523B2
:1053E8001C9019906A4614934FF08073219014A969
:1053F8001D9341F288339FED2A7BCDE91A90CDE9C0
:105408001F008DED007B9FED287B30468DED027BE4
:105418009FED277B8DED047B06F0B0F80028BAD10C
:1054280029462046FFF748FE0028B4D12046FFF75A
:10543800CFFE03460028AED1002FB0D118933046D6
:105448000027002606AA14A9CDF86890CDE91F33D5
:10545800EB2314934FF440631B934FF400531793BB
:105468004FF440431C93A0231693062319934FF03F
:10547800805321934FF04073CDE906671D9306F0E2
:10548800F5F8034600288AD0434684F85C8086E70E
:1054980001230322184684F85C2023B0BDE8F0837A
:1054A80000000000010000001000000001000000E2
:1054B80000000000000040003C1100240050005291
:1054C8002DE9F04F8FB0414B0024026800AF9A429B
:1054D8007C63C7E90944C7E90B4403D03C37BD46A0
:1054E800BDE8F08F3A4B40F609213A48EB46D3F82D
:1054F800D42007F11C0607F1220A4FF0020942F4F2
:1055080080424FF00308C3F8D420D3F8D42002F423
:105518008042BA60BA68D3F8E02042F04002C3F88B
:10552800E020D3F8E02002F04002FA60FA68D3F8ED
:10553800E02042F02002C3F8E020D3F8E02002F097
:1055480020023A613A69D3F8E02042F01002C3F829
:10555800E020D3F8E02002F010027A617A69D3F8EB
:10556800E02042F00202C3F8E020D3F8E030F8610E
:1055780003F002033984BB61174B7B60BB697B680E
:1055880053F8040F7B6001F0CBFE7B680546186872
:1055980001F0CEFE16F8013B786207F12401284697
:1055A800C7F830807B63C7E90A9403F08DFF56453E
:1055B800E5D100225C20114602F0DEFD5C2002F0FD
:1055C80019FE3C37DD46BD46BDE8F08F005000525D
:1055D800004402580A0A090998110024114B02686C
:1055E8009A4200D07047104A70B5D2F8D4300F4CA8
:1055F80023F4804304F11806C2F8D43054F8040F99
:1056080001F08EFE0546206801F092FE014628460C
:1056180004F09AF8B442F1D15C20BDE8704002F081
:10562800F7BD00BF005000520044025898110024F2
:10563800014806F0A7B800BF4C110024084B1A1DFA
:10564800981D03F1080110B49C1C9A6603F10A0224
:10565800C3E91834C3E91B015DF8044B5A67704766
:105668003C11002438B5036871B9026A00F12805B5
:1056780000F5AC74012A0CBF002140218BBB1D4BE7
:105688005722C0F858310DE0426A00F1C00500F514
:10569800E874012A0CBF00214021EBB1164B5A22B5
:1056A800C0F8D03100232046C4E901214FF48052CC
:1056B8004FF48061636262614FF48042C4E9033150
:1056C8004FF48073C4E906234FF40033236203F0D8
:1056D80031F858B1FFBEFEE7084B5822C0F8D03168
:1056E800E0E7074B5922C0F85831DBE7C5E9204409
:1056F800A56338BD10000240700002402800024037
:10570800580002402DE9F043821D05468BB0031D69
:1057180005F10A010830CDE9052305F10C02AB6952
:10572800CDE907010992002B3DD0EB69B3FA83F864
:105738004FEA58180123022205AE0AAF4FF00609B6
:105748000393CDE9012356F8044B2B792278934231
:1057580016D02B68F3B1012B02D1F2B10A230493BE
:10576800204601F0E5FD03462046009301F0D8FDF0
:10577800694603F0A9FEBE42E5D10BB0BDE8F0834F
:10578800697963789942E4D1B8F1000FF3D02B68B6
:10579800002BE0D1CDF81090E2E76378022B14BF1C
:1057A8000A230823DBE74FF00108C3E7534A0368DD
:1057B800934230B505468BB055D02032934252D033
:1057C8004F4A934204D02032934201D00BB030BDEF
:1057D8004C4C4D48D4F8E03043F00103C4F8E030B5
:1057E800D4F8E03003F001030593059BD4F8E030CA
:1057F80043F00803C4F8E030D4F8E03003F00803BD
:105808000693069BD4F8E03043F04003C4F8E03038
:10581800D4F8E03003F040030793079BD4F8F03046
:1058280043F40003C4F8F030D4F8F03003F4000374
:105838000893089BFFF766FFD4F8D830296843F02F
:1058480001032F4A3048C4F8D830891AD4F8D83020
:1058580018BF012103F001030993099B0BB0BDE8B0
:105868003040FFF7FFBE274C2848D4F8E03043F01B
:105878000103C4F8E030D4F8E03003F001030093EA
:10588800009BD4F8E03043F01003C4F8E030D4F8BB
:10589800E03003F010030193019BD4F8E03043F0AB
:1058A8004003C4F8E030D4F8E03003F0400302933A
:1058B800029BD4F8F03043F48003C4F8F030D4F8F5
:1058C800F03003F480030393039BFFF71BFFD4F826
:1058D800D830296843F00103084A0C48C4F8D83086
:1058E800891AD4F8D83018BF012103F001030493B2
:1058F800049B0BB0BDE83040FFF7B4BE045801402C
:10590800045C01400044025810140024B41100241F
:10591800014803F087BA00BF0C130024014803F0C4
:1059280081BA00BF84130024014803F07BBA00BF8A
:1059380068150024014803F075BA00BFE01500247B
:105948001A4A0368934210B40BD02032934208D00D
:10595800174A934216D02032934213D05DF8044B75
:105968007047144B0022D3F85442C3F85822002C35
:10597800F4D0D3F84802D3E9931223465DF8044BD8
:10598800520818470B4B0022D3F8B044C3F8B4248C
:10599800002CE3D0D3F8AC24D3F8A814D3F8A4048B
:1059A800520823465DF8044B184700BF04580140CD
:1059B800045C0140B4110024184A0368934210B4EF
:1059C8000BD02032934208D0154A934217D0203288
:1059D800934214D05DF8044B7047124BD3E99424DA
:1059E8005208C3F85822002CF4D0D3E99201234678
:1059F80001EB820100EB82005DF8044B1847094B6C
:105A0800D3F8AC24D3F8B0445208C3F8B424002C1B
:105A1800E0D0D3F8A814D3F8A404E8E70458014068
:105A2800045C0140B41100242DE9F04F0C684FF4D8
:105A38001776754F87B004FB06F6012C07EB060AAC
:105A4800C0F800A000F3A0800D468E464FF0000875
:105A5800D44669A3D3E9002369A1D1E90001CDE9BE
:105A6800022306ABCAF8508203EB8403CDE9040194
:105A780053F810BC53F8083CCAE992880193BEE871
:105A88000F00ACE80F00BEE80F00ACE80F00019B68
:105A98009EE80300CAF828B0CAF8C0308CE80300B2
:105AA8002B69042B0CD8DFE803F0737D8791030082
:105AB8004FF41773554A03FB04739A64C3F8E02044
:105AC800AA692B6A002A43D0002B4FF4177308BF2A
